{
  "_format": "hh-sol-artifact-1",
  "contractName": "CakeV3PoolQuoteHelperV2",
  "sourceName": "src/tools/CakeV3PoolQuoteHelperV2.sol",
  "abi": [
    {
      "inputs": [
        {
          "internalType": "address",
          "name": "poolAddress",
          "type": "address"
        }
      ],
      "name": "getPoolState",
      "outputs": [
        {
          "components": [
            {
              "internalType": "uint160",
              "name": "sqrtPriceX96",
              "type": "uint160"
            },
            {
              "internalType": "int24",
              "name": "tick",
              "type": "int24"
            },
            {
              "internalType": "uint128",
              "name": "liquidity",
              "type": "uint128"
            }
          ],
          "internalType": "struct CakeV3PoolQuoteHelperV2.PoolStateSnapshot",
          "name": "snapshot",
          "type": "tuple"
        }
      ],
      "stateMutability": "view",
      "type": "function"
    },
    {
      "inputs": [
        {
          "internalType": "address",
          "name": "poolAddress",
          "type": "address"
        },
        {
          "internalType": "int24",
          "name": "startTick",
          "type": "int24"
        },
        {
          "internalType": "int24",
          "name": "stopTick",
          "type": "int24"
        },
        {
          "internalType": "bool",
          "name": "zeroForOne",
          "type": "bool"
        },
        {
          "internalType": "uint256",
          "name": "maxTickTravel",
          "type": "uint256"
        }
      ],
      "name": "getTicks",
      "outputs": [
        {
          "components": [
            {
              "internalType": "int24",
              "name": "tick",
              "type": "int24"
            },
            {
              "internalType": "bool",
              "name": "initialized",
              "type": "bool"
            },
            {
              "internalType": "int128",
              "name": "liquidityNet",
              "type": "int128"
            }
          ],
          "internalType": "struct CakeV3PoolQuoteHelperV2.TickData[]",
          "name": "ticks",
          "type": "tuple[]"
        }
      ],
      "stateMutability": "view",
      "type": "function"
    }
  ],
  "bytecode": "0x60806040523461001a5760405161157e610020823961157e90f35b600080fdfe6080604052600436101561001257600080fd5b60003560e01c806310869594146100325763ec04205b03610049576101fa565b61017e565b6001600160a81b0381165b0361004957565b600080fd5b6001600160a01b031690565b90565b61005a91503561004e81610037565b6100428160020b90565b905035906100838261006c565b565b801515610042565b9050359061008382610085565b80610042565b905035906100838261009a565b919060a083820312610049576100c3818461005d565b926100d18260208301610076565b9261005a6100e28460408501610076565b936100f0816060860161008d565b936080016100a0565b90610119610112610108845190565b8084529260200190565b9260200190565b9060005b81811061012a5750505090565b90919261016561015e6001928651805160020b8252602080820151151590830152604090810151600f0b9082015260600190565b9460200190565b92910161011d565b602080825261005a929101906100f9565b34610049576101a961019d6101943660046100ad565b9392909261076e565b6040519182918261016d565b0390f35b906020828203126100495761005a9161005d565b606081019291610083919080516001600160a01b0316825260208082015160020b908301526040908101516001600160801b0316910152565b34610049576101a96102156102103660046101ad565b6103ce565b604051918291826101c1565b634e487b7160e01b600052604160045260246000fd5b90601f01601f1916810190811067ffffffffffffffff82111761025957604052565b610221565b9061008361026b60405190565b9283610237565b61005a606061025e565b610284610272565b600080825260208201819052604082015290565b61005a61027c565b61005a9061004e906001600160a01b031682565b61005a906102a0565b61005a906102b4565b6001600160a01b038116610042565b90505190610083826102c6565b905051906100838261006c565b61ffff8116610042565b90505190610083826102ef565b63ffffffff8116610042565b9050519061008382610306565b9050519061008382610085565b60e0818303126100495761034082826102d5565b9261034e83602084016102e2565b9261035c81604085016102f9565b9261036a82606083016102f9565b9261005a61037b84608085016102f9565b936103898160a08601610312565b9360c00161031f565b6040513d6000823e3d90fd5b6001600160801b038116610042565b905051906100838261039e565b906020828203126100495761005a916103ad565b6103e36103e8916103dd610298565b506102bd565b6102bd565b633850c7bd6104006103f960405190565b9160e01b90565b815260e081600481855afa9081156104c6576000809190926104cb575b50602061043d9293631a6865029061043460405190565b94859260e01b90565b825260049082905afa9081156104c65761005a92600092610492575b5061048290610478610469610272565b6001600160a01b039096168652565b60020b6020850152565b6001600160801b03166040830152565b6104829192506104b89060203d81116104bf575b6104b08183610237565b8101906103ba565b9190610459565b503d6104a6565b610392565b61043d9250602091506104f49060e03d8111610501575b6104ec8183610237565b81019061032c565b505050505091509161041d565b503d6104e2565b906020828203126100495761005a916102e2565b61052961005a61005a9290565b60020b90565b61005a620d89e71961051c565b634e487b7160e01b600052601160045260246000fd5b60020b627fffff1981146105665760000390565b61053c565b61005a61057661052f565b610552565b1561058257565b60405162461bcd60e51b8152602060048201526012602482015271496e76616c6964207469636b2072616e676560701b6044820152606490fd5b61005a61005a61005a9290565b67ffffffffffffffff81116102595760208091020190565b906105f36105ee836105c9565b61025e565b918252565b60005b82811061060757505050565b602090610612610298565b81840152016105fb565b9061008361063261062c846105e1565b936105c9565b601f1901602084016105f8565b61064c61005a61005a9290565b600f0b90565b61004281600f0b90565b9050519061008382610652565b905051906100838261009a565b6100428160060b90565b9050519061008382610676565b919061010083820312610049576106a481846103ad565b926106b2826020830161065c565b926106c08360408401610669565b926106ce8160608501610669565b926106dc8260808301610680565b9261005a6106ed8460a085016102d5565b936106fb8160c08601610312565b9360e00161031f565b634e487b7160e01b600052603260045260246000fd5b90610723825190565b811015610734576020809102010190565b610704565b60001981146105665760010190565b6107579060020b5b9160020b90565b900390627fffff198212627fffff83131761056657565b92949193909261077f9060606103dd565b91610789836102bd565b9563d0c93a7c906107a361079c60405190565b9260e01b90565b82526020826004818b5afa9182156104c657600092610c7a575b5015610a59576107cb61052f565b946107d68760020b90565b6107e08760020b90565b131580610a39575b6107f49098949861057b565b92600094610801866105bc565b61080a8a61061c565b955b6108168a60020b90565b6108208260020b90565b1380610a30575b15610a20579061083d8592600196879186610ded565b90918261084a8160020b90565b6108548d60020b90565b1280610a05575b6109f25761086c6107508d60020b90565b126109ea575b898261087d8261063f565b90610965575b6108b8906108ae6108d3956108a58861089a610272565b9687019060020b9052565b15156020850152565b600f0b6040830152565b6108c2828b61071a565b526108cd818a61071a565b50610739565b946108de8a60020b90565b6108e88360020b90565b1461090857906108fa6109009261051c565b90610748565b93909361080c565b5050505050955091935091505b6109276109218561061c565b936105bc565b845b81101561095e5761095781610941610929938661071a565b5161094c828861071a565b526108cd818761071a565b9050610927565b5092505090565b505063f30dba936109786103f960405190565b8152600284900b6004820152610100816024818a5afa80156104c6576108d3938c926108b8926108ae916000916109b5575b509250509350610883565b6109d791506101003d81116109e3575b6109cf8183610237565b81019061068d565b505050505050906109aa565b503d6109c5565b8a9250610872565b509b505050505050509193509150610915565b50610a108d60020b90565b610a1a8260020b90565b1261085b565b5098505050509193509150610915565b508a8210610827565b506107f4610a478260020b90565b610a518960020b90565b1290506107e8565b93610a6986979394929660020b90565b610a738260020b90565b1280610c58575b610a869095949561057b565b92600094610a93866105bc565b92610a9d8261061c565b955b610aa98a60020b90565b610ab38260020b90565b1280610c4f575b15610c41578784610acb9284610ded565b909485610ad88160020b90565b610ae28d60020b90565b1280610c25575b610c1557610afb61075061052961056b565b13610c05575b8882610b0c8261063f565b90610b90575b610b29906108ae610b3e956108a58b61089a610272565b610b33828a61071a565b526108cd818961071a565b93610b4a61052961056b565b610b548260020b90565b03610a9f575050505094505090915b610b6f6109218561061c565b845b81101561095e57610b8981610941610b71938661071a565b9050610b6f565b505063f30dba93610ba36103f960405190565b8152600287900b6004820152610100816024818b5afa80156104c657610b3e938b92610b29926108ae91600091610be0575b509250509350610b12565b610bf991506101003d81116109e3576109cf8183610237565b50505050505090610bd5565b9450610c0f61056b565b94610b01565b5099505050505050509091610b63565b50610c3161052961056b565b610c3b8260020b90565b12610ae9565b505050509450509091610b63565b50828510610aba565b50610a86610c6761052961056b565b610c718960020b90565b13159050610a7a565b610c9c91925060203d8111610ca3575b610c948183610237565b810190610508565b90386107bd565b503d610c8a565b634e487b7160e01b600052601260045260246000fd5b610ccc9060020b610750565b908115610ce857627fffff198114600019831416610566570590565b610caa565b610cf99060020b610750565b908115610ce8570790565b60020b627fffff198114610566576000190190565b610d259060020b610750565b0190627fffff8213627fffff1983121761056657565b61005a90610d53610d4f61005a9460ff1690565b9190565b901b90565b9190820391821161056657565b906020828203126100495761005a91610669565b610d889060ff165b9160ff1690565b90039060ff821161056657565b610da561005a61005a9260ff1690565b62ffffff1690565b61052961005a61005a9262ffffff1690565b610dcb9060020b610750565b0290610dd78260020b90565b91820361056657565b9190820180921161056657565b90929190610dfb8285610cc0565b928360009584610e0a8861051c565b610e148360020b90565b12918261102e575b505061101c575b5015610f3457610e98602091610e3885611507565b9390610e69610e63610e4a60016105bc565b610e5e610e578983610d3b565b9182610d58565b610de0565b936102bd565b610e87635339c296610e7a60405190565b9687948593849360e01b90565b835260010b60048301526024820190565b03915afa80156104c657610eb692600091610f06575b5016946105bc565b841480159490610ef257926108fa610ee5610ee0610eea94610eda610eef98611098565b90610d79565b610d95565b610dad565b610dbf565b91565b50610eef926108fa610ee5610eea93610d95565b610f27915060203d8111610f2d575b610f1f8183610237565b810190610d65565b38610eae565b503d610f15565b926020610f7e600195610f57610f52610f4c8961051c565b88610d19565b611507565b9390610e69610e63610f7a610f6b8c6105bc565b610f758982610d3b565b610d58565b1990565b03915afa80156104c657610f9c92600091610ffe575b5016926105bc565b821480159590610fd857610ee5610ee0610eea9493610fd3610fcd610eef99610fc7610fc79761051c565b90610d19565b9561127f565b610d79565b610eea9250610ee5610ee0610ff6610eef97610fc7610fc79561051c565b9360ff610d79565b611016915060203d8111610f2d57610f1f8183610237565b38610f94565b611027919450610d04565b9238610e23565b6110389250610ced565b6110446107508861051c565b14158438610e1c565b1561004957565b61106161005a61005a9290565b60ff1690565b61005a9061107b610d4f61005a9460ff1690565b901c90565b61108c9060ff16610d81565b019060ff821161056657565b90600091826110b26110aa60006105bc565b835b1161104d565b6110bf600160801b6105bc565b821015611204575b506110da680100000000000000006105bc565b8110156111ed575b6110f06401000000006105bc565b8110156111d6575b611104620100006105bc565b8110156111bf575b6111176101006105bc565b8110156111a8575b61112960106105bc565b811015611191575b61113b60046105bc565b81101561116d575b611150610d4f60026105bc565b101561115857565b9061005a906111676001611054565b90611080565b61118b9061118561117e6002611054565b8092611067565b93611080565b91611143565b6111a29061118561117e6004611054565b91611131565b6111b99061118561117e6008611054565b9161111f565b6111d09061118561117e6010611054565b9161110c565b6111e79061118561117e6020611054565b916110f8565b6111fe9061118561117e6040611054565b916110e2565b92506112179061118561117e6080611054565b91386110c7565b61005a61005a61005a926001600160801b031690565b61005a61005a61005a9267ffffffffffffffff1690565b61005a61005a61005a9263ffffffff1690565b61005a61005a61005a9261ffff1690565b61005a61005a61005a9260ff1690565b9060009161129561128f846105bc565b826110ac565b60ff6112a081611054565b806112b16001600160801b0361121e565b84166112bf610d4f886105bc565b11156114a057506112d490610eda6080611054565b6112e567ffffffffffffffff611234565b83166112f3610d4f876105bc565b111561148b5761130790610eda6040611054565b61131463ffffffff61124b565b8316611322610d4f876105bc565b11156114765761133690610eda6020611054565b61134161ffff61125e565b831661134f610d4f876105bc565b111561145d5761136661136c91610eda6010611054565b9161126f565b821661137a610d4f866105bc565b11156114485761138e90610eda6008611054565b611398600f6105bc565b82166113a6610d4f866105bc565b1115611433576113ba90610eda6004611054565b6113c460036105bc565b82166113d2610d4f866105bc565b1115611417576113e690610eda6002611054565b925b611401610d4f6001936113fa856105bc565b16926105bc565b116114095750565b91610eda61005a9293611054565b929061142d906114276002611054565b90611067565b906113e8565b90611442906114276004611054565b906113ba565b90611457906114276008611054565b9061138e565b909161147061136c916114276010611054565b9261126f565b91611485906114276020611054565b91611336565b9161149a906114276040611054565b91611307565b926114b091506114276080611054565b916112d4565b610529906114ca61075061005a9460ff1690565b901d90565b6114df61005a61005a9260020b90565b60010b90565b610da561005a61005a9260020b90565b61106161005a61005a9262ffffff1690565b9061005a61154361153e61152c6115276115216008611054565b876114b6565b6114cf565b9461153861010061051c565b90610ced565b6114e5565b6114f556fea26474726f6e58221220e69107d7e3bfdaa704962c6a57edc0edd64c753a24cda8d10b9b2b5317101b1b64736f6c63430008140033",
  "linkReferences": {},
  "deployedLinkReferences": {}
}