{
  "_format": "hh-sol-artifact-1",
  "contractName": "CakeV3PoolQuoteHelper",
  "sourceName": "src/tools/CakeV3PoolQuoteHelper.sol",
  "abi": [
    {
      "inputs": [
        {
          "internalType": "address",
          "name": "poolAddress",
          "type": "address"
        }
      ],
      "name": "getPoolState",
      "outputs": [
        {
          "components": [
            {
              "internalType": "uint160",
              "name": "sqrtPriceX96",
              "type": "uint160"
            },
            {
              "internalType": "int24",
              "name": "tick",
              "type": "int24"
            },
            {
              "internalType": "uint128",
              "name": "liquidity",
              "type": "uint128"
            }
          ],
          "internalType": "struct CakeV3PoolQuoteHelper.PoolStateSnapshot",
          "name": "snapshot",
          "type": "tuple"
        }
      ],
      "stateMutability": "view",
      "type": "function"
    },
    {
      "inputs": [
        {
          "internalType": "address",
          "name": "poolAddress",
          "type": "address"
        },
        {
          "internalType": "int24",
          "name": "startTick",
          "type": "int24"
        },
        {
          "internalType": "int24",
          "name": "stopTick",
          "type": "int24"
        },
        {
          "internalType": "bool",
          "name": "zeroForOne",
          "type": "bool"
        }
      ],
      "name": "getTicks",
      "outputs": [
        {
          "components": [
            {
              "internalType": "int24",
              "name": "tick",
              "type": "int24"
            },
            {
              "internalType": "bool",
              "name": "initialized",
              "type": "bool"
            },
            {
              "internalType": "int128",
              "name": "liquidityNet",
              "type": "int128"
            }
          ],
          "internalType": "struct CakeV3PoolQuoteHelper.TickData[]",
          "name": "ticks",
          "type": "tuple[]"
        }
      ],
      "stateMutability": "view",
      "type": "function"
    }
  ],
  "bytecode": "0x60806040523461001a57604051611578610020823961157890f35b600080fdfe6080604052600436101561001257600080fd5b60003560e01c8063d3d4704a146100325763ec04205b03610049576101d7565b61015b565b6001600160a81b0381165b0361004957565b600080fd5b6001600160a01b031690565b90565b61005a91503561004e81610037565b6100428160020b90565b905035906100838261006c565b565b801515610042565b9050359061008382610085565b608081830312610049576100ae828261005d565b9261005a6100bf8460208501610076565b936100cd8160408601610076565b9360600161008d565b906100f66100ef6100e5845190565b8084529260200190565b9260200190565b9060005b8181106101075750505090565b90919261014261013b6001928651805160020b8252602080820151151590830152604090810151600f0b9082015260600190565b9460200190565b9291016100fa565b602080825261005a929101906100d6565b346100495761018661017a61017136600461009a565b9291909161075c565b6040519182918261014a565b0390f35b906020828203126100495761005a9161005d565b606081019291610083919080516001600160a01b0316825260208082015160020b908301526040908101516001600160801b0316910152565b34610049576101866101f26101ed36600461018a565b6103ab565b6040519182918261019e565b634e487b7160e01b600052604160045260246000fd5b90601f01601f1916810190811067ffffffffffffffff82111761023657604052565b6101fe565b9061008361024860405190565b9283610214565b61005a606061023b565b61026161024f565b600080825260208201819052604082015290565b61005a610259565b61005a9061004e906001600160a01b031682565b61005a9061027d565b61005a90610291565b6001600160a01b038116610042565b90505190610083826102a3565b905051906100838261006c565b61ffff8116610042565b90505190610083826102cc565b63ffffffff8116610042565b90505190610083826102e3565b9050519061008382610085565b60e0818303126100495761031d82826102b2565b9261032b83602084016102bf565b9261033981604085016102d6565b9261034782606083016102d6565b9261005a61035884608085016102d6565b936103668160a086016102ef565b9360c0016102fc565b6040513d6000823e3d90fd5b6001600160801b038116610042565b905051906100838261037b565b906020828203126100495761005a9161038a565b6103c06103c5916103ba610275565b5061029a565b61029a565b633850c7bd6103dd6103d660405190565b9160e01b90565b815260e081600481855afa9081156104a3576000809190926104a8575b50602061041a9293631a6865029061041160405190565b94859260e01b90565b825260049082905afa9081156104a35761005a9260009261046f575b5061045f9061045561044661024f565b6001600160a01b039096168652565b60020b6020850152565b6001600160801b03166040830152565b61045f9192506104959060203d811161049c575b61048d8183610214565b810190610397565b9190610436565b503d610483565b61036f565b61041a9250602091506104d19060e03d81116104de575b6104c98183610214565b810190610309565b50505050509150916103fa565b503d6104bf565b906020828203126100495761005a916102bf565b61050661005a61005a9290565b60020b90565b61005a620d89e7196104f9565b634e487b7160e01b600052601160045260246000fd5b60020b627fffff1981146105435760000390565b610519565b61005a61055361050c565b61052f565b1561055f57565b60405162461bcd60e51b8152602060048201526012602482015271496e76616c6964207469636b2072616e676560701b6044820152606490fd5b61005a61005a61005a9290565b61005a6101f4610599565b67ffffffffffffffff81116102365760208091020190565b906105db6105d6836105b1565b61023b565b918252565b60005b8281106105ef57505050565b6020906105fa610275565b81840152016105e3565b9061008361061a610614846105c9565b936105b1565b601f1901602084016105e0565b61063461005a61005a9290565b600f0b90565b61004281600f0b90565b905051906100838261063a565b80610042565b9050519061008382610651565b6100428160060b90565b9050519061008382610664565b91906101008382031261004957610692818461038a565b926106a08260208301610644565b926106ae8360408401610657565b926106bc8160608501610657565b926106ca826080830161066e565b9261005a6106db8460a085016102b2565b936106e98160c086016102ef565b9360e0016102fc565b634e487b7160e01b600052603260045260246000fd5b90610711825190565b811015610722576020809102010190565b6106f2565b60001981146105435760010190565b6107459060020b5b9160020b90565b900390627fffff198212627fffff83131761054357565b61076d9094919293946103ba606090565b936107778561029a565b9163d0c93a7c9161079161078a60405190565b9360e01b90565b8352602083600481875afa9283156104a357600093610c74575b5015610a4e576107b961050c565b936107c48660020b90565b6107ce8660020b90565b131580610a2e575b6107df90610558565b916000936107ec85610599565b976107f56105a6565b986107ff8a610604565b955b61080b8a60020b90565b6108158260020b90565b1380610a25575b15610a1557906108328592600196879186610de7565b90918261083f8160020b90565b6108498d60020b90565b12806109fa575b6109e75761086161073e8d60020b90565b126109df575b898261087282610627565b9061095a575b6108ad906108a36108c89561089a8861088f61024f565b9687019060020b9052565b15156020850152565b600f0b6040830152565b6108b7828b610708565b526108c2818a610708565b50610727565b946108d38a60020b90565b6108dd8360020b90565b146108fd57906108ef6108f5926104f9565b90610736565b939093610801565b5050505050955091935091505b61091c61091685610604565b93610599565b845b8110156109535761094c8161093661091e9386610708565b516109418288610708565b526108c28187610708565b905061091c565b5092505090565b505063f30dba9361096d6103d660405190565b8152600284900b6004820152610100816024818a5afa80156104a3576108c8938c926108ad926108a3916000916109aa575b509250509350610878565b6109cc91506101003d81116109d8575b6109c48183610214565b81019061067b565b5050505050509061099f565b503d6109ba565b8a9250610867565b509b50505050505050919350915061090a565b50610a058d60020b90565b610a0f8260020b90565b12610850565b509850505050919350915061090a565b508a821061081c565b506107df610a3c8260020b90565b610a468860020b90565b1290506107d6565b9394919092610a5d8660020b90565b610a678260020b90565b1280610c52575b610a7790610558565b91600093610a8485610599565b91610a8d6105a6565b90610a9782610604565b955b610aa38a60020b90565b610aad8260020b90565b1280610c49575b15610c3b578784610ac59284610de7565b909485610ad28160020b90565b610adc8d60020b90565b1280610c1f575b610c0f57610af561073e610506610548565b13610bff575b8882610b0682610627565b90610b8a575b610b23906108a3610b389561089a8b61088f61024f565b610b2d828a610708565b526108c28189610708565b93610b44610506610548565b610b4e8260020b90565b03610a99575050505094505090915b610b6961091685610604565b845b81101561095357610b8381610936610b6b9386610708565b9050610b69565b505063f30dba93610b9d6103d660405190565b8152600287900b6004820152610100816024818b5afa80156104a357610b38938b92610b23926108a391600091610bda575b509250509350610b0c565b610bf391506101003d81116109d8576109c48183610214565b50505050505090610bcf565b9450610c09610548565b94610afb565b5099505050505050509091610b5d565b50610c2b610506610548565b610c358260020b90565b12610ae3565b505050509450509091610b5d565b50828510610ab4565b50610a77610c61610506610548565b610c6b8860020b90565b13159050610a6e565b610c9691935060203d8111610c9d575b610c8e8183610214565b8101906104e5565b91386107ab565b503d610c84565b634e487b7160e01b600052601260045260246000fd5b610cc69060020b61073e565b908115610ce257627fffff198114600019831416610543570590565b610ca4565b610cf39060020b61073e565b908115610ce2570790565b60020b627fffff198114610543576000190190565b610d1f9060020b61073e565b0190627fffff8213627fffff1983121761054357565b61005a90610d4d610d4961005a9460ff1690565b9190565b901b90565b9190820391821161054357565b906020828203126100495761005a91610657565b610d829060ff165b9160ff1690565b90039060ff821161054357565b610d9f61005a61005a9260ff1690565b62ffffff1690565b61050661005a61005a9262ffffff1690565b610dc59060020b61073e565b0290610dd18260020b90565b91820361054357565b9190820180921161054357565b90929190610df58285610cba565b928360009584610e04886104f9565b610e0e8360020b90565b129182611028575b5050611016575b5015610f2e57610e92602091610e3285611501565b9390610e63610e5d610e446001610599565b610e58610e518983610d35565b9182610d52565b610dda565b9361029a565b610e81635339c296610e7460405190565b9687948593849360e01b90565b835260010b60048301526024820190565b03915afa80156104a357610eb092600091610f00575b501694610599565b841480159490610eec57926108ef610edf610eda610ee494610ed4610ee998611092565b90610d73565b610d8f565b610da7565b610db9565b91565b50610ee9926108ef610edf610ee493610d8f565b610f21915060203d8111610f27575b610f198183610214565b810190610d5f565b38610ea8565b503d610f0f565b926020610f78600195610f51610f4c610f46896104f9565b88610d13565b611501565b9390610e63610e5d610f74610f658c610599565b610f6f8982610d35565b610d52565b1990565b03915afa80156104a357610f9692600091610ff8575b501692610599565b821480159590610fd257610edf610eda610ee49493610fcd610fc7610ee999610fc1610fc1976104f9565b90610d13565b95611279565b610d73565b610ee49250610edf610eda610ff0610ee997610fc1610fc1956104f9565b9360ff610d73565b611010915060203d8111610f2757610f198183610214565b38610f8e565b611021919450610cfe565b9238610e1d565b6110329250610ce7565b61103e61073e886104f9565b14158438610e16565b1561004957565b61105b61005a61005a9290565b60ff1690565b61005a90611075610d4961005a9460ff1690565b901c90565b6110869060ff16610d7b565b019060ff821161054357565b90600091826110ac6110a46000610599565b835b11611047565b6110b9600160801b610599565b8210156111fe575b506110d468010000000000000000610599565b8110156111e7575b6110ea640100000000610599565b8110156111d0575b6110fe62010000610599565b8110156111b9575b611111610100610599565b8110156111a2575b6111236010610599565b81101561118b575b6111356004610599565b811015611167575b61114a610d496002610599565b101561115257565b9061005a90611161600161104e565b9061107a565b6111859061117f611178600261104e565b8092611061565b9361107a565b9161113d565b61119c9061117f611178600461104e565b9161112b565b6111b39061117f611178600861104e565b91611119565b6111ca9061117f611178601061104e565b91611106565b6111e19061117f611178602061104e565b916110f2565b6111f89061117f611178604061104e565b916110dc565b92506112119061117f611178608061104e565b91386110c1565b61005a61005a61005a926001600160801b031690565b61005a61005a61005a9267ffffffffffffffff1690565b61005a61005a61005a9263ffffffff1690565b61005a61005a61005a9261ffff1690565b61005a61005a61005a9260ff1690565b9060009161128f61128984610599565b826110a6565b60ff61129a8161104e565b806112ab6001600160801b03611218565b84166112b9610d4988610599565b111561149a57506112ce90610ed4608061104e565b6112df67ffffffffffffffff61122e565b83166112ed610d4987610599565b11156114855761130190610ed4604061104e565b61130e63ffffffff611245565b831661131c610d4987610599565b11156114705761133090610ed4602061104e565b61133b61ffff611258565b8316611349610d4987610599565b11156114575761136061136691610ed4601061104e565b91611269565b8216611374610d4986610599565b11156114425761138890610ed4600861104e565b611392600f610599565b82166113a0610d4986610599565b111561142d576113b490610ed4600461104e565b6113be6003610599565b82166113cc610d4986610599565b1115611411576113e090610ed4600261104e565b925b6113fb610d496001936113f485610599565b1692610599565b116114035750565b91610ed461005a929361104e565b929061142790611421600261104e565b90611061565b906113e2565b9061143c90611421600461104e565b906113b4565b9061145190611421600861104e565b90611388565b909161146a61136691611421601061104e565b92611269565b9161147f90611421602061104e565b91611330565b9161149490611421604061104e565b91611301565b926114aa9150611421608061104e565b916112ce565b610506906114c461073e61005a9460ff1690565b901d90565b6114d961005a61005a9260020b90565b60010b90565b610d9f61005a61005a9260020b90565b61105b61005a61005a9262ffffff1690565b9061005a61153d61153861152661152161151b600861104e565b876114b0565b6114c9565b946115326101006104f9565b90610ce7565b6114df565b6114ef56fea26474726f6e58221220f863fc4ffb14dac8a22dbdc8805c17bf69d040a3a864271b3e35f0295c2b031564736f6c63430008140033",
  "linkReferences": {},
  "deployedLinkReferences": {}
}