{
    "contractName": "Permit2",
    "abi": [
        {
            "inputs": [
                {
                    "internalType": "uint256",
                    "name": "deadline",
                    "type": "uint256"
                }
            ],
            "name": "AllowanceExpired",
            "type": "error"
        },
        {
            "inputs": [],
            "name": "ExcessiveInvalidation",
            "type": "error"
        },
        {
            "inputs": [
                {
                    "internalType": "uint256",
                    "name": "amount",
                    "type": "uint256"
                }
            ],
            "name": "InsufficientAllowance",
            "type": "error"
        },
        {
            "inputs": [
                {
                    "internalType": "uint256",
                    "name": "maxAmount",
                    "type": "uint256"
                }
            ],
            "name": "InvalidAmount",
            "type": "error"
        },
        {
            "inputs": [],
            "name": "InvalidContractSignature",
            "type": "error"
        },
        {
            "inputs": [],
            "name": "InvalidNonce",
            "type": "error"
        },
        {
            "inputs": [],
            "name": "InvalidSignature",
            "type": "error"
        },
        {
            "inputs": [],
            "name": "InvalidSignatureLength",
            "type": "error"
        },
        {
            "inputs": [],
            "name": "InvalidSigner",
            "type": "error"
        },
        {
            "inputs": [],
            "name": "LengthMismatch",
            "type": "error"
        },
        {
            "inputs": [
                {
                    "internalType": "uint256",
                    "name": "signatureDeadline",
                    "type": "uint256"
                }
            ],
            "name": "SignatureExpired",
            "type": "error"
        },
        {
            "anonymous": false,
            "inputs": [
                {
                    "indexed": true,
                    "internalType": "address",
                    "name": "owner",
                    "type": "address"
                },
                {
                    "indexed": true,
                    "internalType": "address",
                    "name": "token",
                    "type": "address"
                },
                {
                    "indexed": true,
                    "internalType": "address",
                    "name": "spender",
                    "type": "address"
                },
                {
                    "indexed": false,
                    "internalType": "uint160",
                    "name": "amount",
                    "type": "uint160"
                },
                {
                    "indexed": false,
                    "internalType": "uint48",
                    "name": "expiration",
                    "type": "uint48"
                }
            ],
            "name": "Approval",
            "type": "event"
        },
        {
            "anonymous": false,
            "inputs": [
                {
                    "indexed": true,
                    "internalType": "address",
                    "name": "owner",
                    "type": "address"
                },
                {
                    "indexed": false,
                    "internalType": "address",
                    "name": "token",
                    "type": "address"
                },
                {
                    "indexed": false,
                    "internalType": "address",
                    "name": "spender",
                    "type": "address"
                }
            ],
            "name": "Lockdown",
            "type": "event"
        },
        {
            "anonymous": false,
            "inputs": [
                {
                    "indexed": true,
                    "internalType": "address",
                    "name": "owner",
                    "type": "address"
                },
                {
                    "indexed": true,
                    "internalType": "address",
                    "name": "token",
                    "type": "address"
                },
                {
                    "indexed": true,
                    "internalType": "address",
                    "name": "spender",
                    "type": "address"
                },
                {
                    "indexed": false,
                    "internalType": "uint48",
                    "name": "newNonce",
                    "type": "uint48"
                },
                {
                    "indexed": false,
                    "internalType": "uint48",
                    "name": "oldNonce",
                    "type": "uint48"
                }
            ],
            "name": "NonceInvalidation",
            "type": "event"
        },
        {
            "anonymous": false,
            "inputs": [
                {
                    "indexed": true,
                    "internalType": "address",
                    "name": "owner",
                    "type": "address"
                },
                {
                    "indexed": true,
                    "internalType": "address",
                    "name": "token",
                    "type": "address"
                },
                {
                    "indexed": true,
                    "internalType": "address",
                    "name": "spender",
                    "type": "address"
                },
                {
                    "indexed": false,
                    "internalType": "uint160",
                    "name": "amount",
                    "type": "uint160"
                },
                {
                    "indexed": false,
                    "internalType": "uint48",
                    "name": "expiration",
                    "type": "uint48"
                },
                {
                    "indexed": false,
                    "internalType": "uint48",
                    "name": "nonce",
                    "type": "uint48"
                }
            ],
            "name": "Permit",
            "type": "event"
        },
        {
            "anonymous": false,
            "inputs": [
                {
                    "indexed": true,
                    "internalType": "address",
                    "name": "owner",
                    "type": "address"
                },
                {
                    "indexed": false,
                    "internalType": "uint256",
                    "name": "word",
                    "type": "uint256"
                },
                {
                    "indexed": false,
                    "internalType": "uint256",
                    "name": "mask",
                    "type": "uint256"
                }
            ],
            "name": "UnorderedNonceInvalidation",
            "type": "event"
        },
        {
            "inputs": [],
            "name": "DOMAIN_SEPARATOR",
            "outputs": [
                {
                    "internalType": "bytes32",
                    "name": "",
                    "type": "bytes32"
                }
            ],
            "stateMutability": "view",
            "type": "function"
        },
        {
            "inputs": [
                {
                    "internalType": "address",
                    "name": "",
                    "type": "address"
                },
                {
                    "internalType": "address",
                    "name": "",
                    "type": "address"
                },
                {
                    "internalType": "address",
                    "name": "",
                    "type": "address"
                }
            ],
            "name": "allowance",
            "outputs": [
                {
                    "internalType": "uint160",
                    "name": "amount",
                    "type": "uint160"
                },
                {
                    "internalType": "uint48",
                    "name": "expiration",
                    "type": "uint48"
                },
                {
                    "internalType": "uint48",
                    "name": "nonce",
                    "type": "uint48"
                }
            ],
            "stateMutability": "view",
            "type": "function"
        },
        {
            "inputs": [
                {
                    "internalType": "address",
                    "name": "token",
                    "type": "address"
                },
                {
                    "internalType": "address",
                    "name": "spender",
                    "type": "address"
                },
                {
                    "internalType": "uint160",
                    "name": "amount",
                    "type": "uint160"
                },
                {
                    "internalType": "uint48",
                    "name": "expiration",
                    "type": "uint48"
                }
            ],
            "name": "approve",
            "outputs": [],
            "stateMutability": "nonpayable",
            "type": "function"
        },
        {
            "inputs": [
                {
                    "internalType": "address",
                    "name": "token",
                    "type": "address"
                },
                {
                    "internalType": "address",
                    "name": "spender",
                    "type": "address"
                },
                {
                    "internalType": "uint48",
                    "name": "newNonce",
                    "type": "uint48"
                }
            ],
            "name": "invalidateNonces",
            "outputs": [],
            "stateMutability": "nonpayable",
            "type": "function"
        },
        {
            "inputs": [
                {
                    "internalType": "uint256",
                    "name": "wordPos",
                    "type": "uint256"
                },
                {
                    "internalType": "uint256",
                    "name": "mask",
                    "type": "uint256"
                }
            ],
            "name": "invalidateUnorderedNonces",
            "outputs": [],
            "stateMutability": "nonpayable",
            "type": "function"
        },
        {
            "inputs": [
                {
                    "components": [
                        {
                            "internalType": "address",
                            "name": "token",
                            "type": "address"
                        },
                        {
                            "internalType": "address",
                            "name": "spender",
                            "type": "address"
                        }
                    ],
                    "internalType": "struct IAllowanceTransfer.TokenSpenderPair[]",
                    "name": "approvals",
                    "type": "tuple[]"
                }
            ],
            "name": "lockdown",
            "outputs": [],
            "stateMutability": "nonpayable",
            "type": "function"
        },
        {
            "inputs": [
                {
                    "internalType": "address",
                    "name": "",
                    "type": "address"
                },
                {
                    "internalType": "uint256",
                    "name": "",
                    "type": "uint256"
                }
            ],
            "name": "nonceBitmap",
            "outputs": [
                {
                    "internalType": "uint256",
                    "name": "",
                    "type": "uint256"
                }
            ],
            "stateMutability": "view",
            "type": "function"
        },
        {
            "inputs": [
                {
                    "internalType": "address",
                    "name": "owner",
                    "type": "address"
                },
                {
                    "components": [
                        {
                            "components": [
                                {
                                    "internalType": "address",
                                    "name": "token",
                                    "type": "address"
                                },
                                {
                                    "internalType": "uint160",
                                    "name": "amount",
                                    "type": "uint160"
                                },
                                {
                                    "internalType": "uint48",
                                    "name": "expiration",
                                    "type": "uint48"
                                },
                                {
                                    "internalType": "uint48",
                                    "name": "nonce",
                                    "type": "uint48"
                                }
                            ],
                            "internalType": "struct IAllowanceTransfer.PermitDetails[]",
                            "name": "details",
                            "type": "tuple[]"
                        },
                        {
                            "internalType": "address",
                            "name": "spender",
                            "type": "address"
                        },
                        {
                            "internalType": "uint256",
                            "name": "sigDeadline",
                            "type": "uint256"
                        }
                    ],
                    "internalType": "struct IAllowanceTransfer.PermitBatch",
                    "name": "permitBatch",
                    "type": "tuple"
                },
                {
                    "internalType": "bytes",
                    "name": "signature",
                    "type": "bytes"
                }
            ],
            "name": "permit",
            "outputs": [],
            "stateMutability": "nonpayable",
            "type": "function"
        },
        {
            "inputs": [
                {
                    "internalType": "address",
                    "name": "owner",
                    "type": "address"
                },
                {
                    "components": [
                        {
                            "components": [
                                {
                                    "internalType": "address",
                                    "name": "token",
                                    "type": "address"
                                },
                                {
                                    "internalType": "uint160",
                                    "name": "amount",
                                    "type": "uint160"
                                },
                                {
                                    "internalType": "uint48",
                                    "name": "expiration",
                                    "type": "uint48"
                                },
                                {
                                    "internalType": "uint48",
                                    "name": "nonce",
                                    "type": "uint48"
                                }
                            ],
                            "internalType": "struct IAllowanceTransfer.PermitDetails",
                            "name": "details",
                            "type": "tuple"
                        },
                        {
                            "internalType": "address",
                            "name": "spender",
                            "type": "address"
                        },
                        {
                            "internalType": "uint256",
                            "name": "sigDeadline",
                            "type": "uint256"
                        }
                    ],
                    "internalType": "struct IAllowanceTransfer.PermitSingle",
                    "name": "permitSingle",
                    "type": "tuple"
                },
                {
                    "internalType": "bytes",
                    "name": "signature",
                    "type": "bytes"
                }
            ],
            "name": "permit",
            "outputs": [],
            "stateMutability": "nonpayable",
            "type": "function"
        },
        {
            "inputs": [
                {
                    "components": [
                        {
                            "components": [
                                {
                                    "internalType": "address",
                                    "name": "token",
                                    "type": "address"
                                },
                                {
                                    "internalType": "uint256",
                                    "name": "amount",
                                    "type": "uint256"
                                }
                            ],
                            "internalType": "struct ISignatureTransfer.TokenPermissions",
                            "name": "permitted",
                            "type": "tuple"
                        },
                        {
                            "internalType": "uint256",
                            "name": "nonce",
                            "type": "uint256"
                        },
                        {
                            "internalType": "uint256",
                            "name": "deadline",
                            "type": "uint256"
                        }
                    ],
                    "internalType": "struct ISignatureTransfer.PermitTransferFrom",
                    "name": "permit",
                    "type": "tuple"
                },
                {
                    "components": [
                        {
                            "internalType": "address",
                            "name": "to",
                            "type": "address"
                        },
                        {
                            "internalType": "uint256",
                            "name": "requestedAmount",
                            "type": "uint256"
                        }
                    ],
                    "internalType": "struct ISignatureTransfer.SignatureTransferDetails",
                    "name": "transferDetails",
                    "type": "tuple"
                },
                {
                    "internalType": "address",
                    "name": "owner",
                    "type": "address"
                },
                {
                    "internalType": "bytes",
                    "name": "signature",
                    "type": "bytes"
                }
            ],
            "name": "permitTransferFrom",
            "outputs": [],
            "stateMutability": "nonpayable",
            "type": "function"
        },
        {
            "inputs": [
                {
                    "components": [
                        {
                            "components": [
                                {
                                    "internalType": "address",
                                    "name": "token",
                                    "type": "address"
                                },
                                {
                                    "internalType": "uint256",
                                    "name": "amount",
                                    "type": "uint256"
                                }
                            ],
                            "internalType": "struct ISignatureTransfer.TokenPermissions[]",
                            "name": "permitted",
                            "type": "tuple[]"
                        },
                        {
                            "internalType": "uint256",
                            "name": "nonce",
                            "type": "uint256"
                        },
                        {
                            "internalType": "uint256",
                            "name": "deadline",
                            "type": "uint256"
                        }
                    ],
                    "internalType": "struct ISignatureTransfer.PermitBatchTransferFrom",
                    "name": "permit",
                    "type": "tuple"
                },
                {
                    "components": [
                        {
                            "internalType": "address",
                            "name": "to",
                            "type": "address"
                        },
                        {
                            "internalType": "uint256",
                            "name": "requestedAmount",
                            "type": "uint256"
                        }
                    ],
                    "internalType": "struct ISignatureTransfer.SignatureTransferDetails[]",
                    "name": "transferDetails",
                    "type": "tuple[]"
                },
                {
                    "internalType": "address",
                    "name": "owner",
                    "type": "address"
                },
                {
                    "internalType": "bytes",
                    "name": "signature",
                    "type": "bytes"
                }
            ],
            "name": "permitTransferFrom",
            "outputs": [],
            "stateMutability": "nonpayable",
            "type": "function"
        },
        {
            "inputs": [
                {
                    "components": [
                        {
                            "components": [
                                {
                                    "internalType": "address",
                                    "name": "token",
                                    "type": "address"
                                },
                                {
                                    "internalType": "uint256",
                                    "name": "amount",
                                    "type": "uint256"
                                }
                            ],
                            "internalType": "struct ISignatureTransfer.TokenPermissions",
                            "name": "permitted",
                            "type": "tuple"
                        },
                        {
                            "internalType": "uint256",
                            "name": "nonce",
                            "type": "uint256"
                        },
                        {
                            "internalType": "uint256",
                            "name": "deadline",
                            "type": "uint256"
                        }
                    ],
                    "internalType": "struct ISignatureTransfer.PermitTransferFrom",
                    "name": "permit",
                    "type": "tuple"
                },
                {
                    "components": [
                        {
                            "internalType": "address",
                            "name": "to",
                            "type": "address"
                        },
                        {
                            "internalType": "uint256",
                            "name": "requestedAmount",
                            "type": "uint256"
                        }
                    ],
                    "internalType": "struct ISignatureTransfer.SignatureTransferDetails",
                    "name": "transferDetails",
                    "type": "tuple"
                },
                {
                    "internalType": "address",
                    "name": "owner",
                    "type": "address"
                },
                {
                    "internalType": "bytes32",
                    "name": "witness",
                    "type": "bytes32"
                },
                {
                    "internalType": "string",
                    "name": "witnessTypeString",
                    "type": "string"
                },
                {
                    "internalType": "bytes",
                    "name": "signature",
                    "type": "bytes"
                }
            ],
            "name": "permitWitnessTransferFrom",
            "outputs": [],
            "stateMutability": "nonpayable",
            "type": "function"
        },
        {
            "inputs": [
                {
                    "components": [
                        {
                            "components": [
                                {
                                    "internalType": "address",
                                    "name": "token",
                                    "type": "address"
                                },
                                {
                                    "internalType": "uint256",
                                    "name": "amount",
                                    "type": "uint256"
                                }
                            ],
                            "internalType": "struct ISignatureTransfer.TokenPermissions[]",
                            "name": "permitted",
                            "type": "tuple[]"
                        },
                        {
                            "internalType": "uint256",
                            "name": "nonce",
                            "type": "uint256"
                        },
                        {
                            "internalType": "uint256",
                            "name": "deadline",
                            "type": "uint256"
                        }
                    ],
                    "internalType": "struct ISignatureTransfer.PermitBatchTransferFrom",
                    "name": "permit",
                    "type": "tuple"
                },
                {
                    "components": [
                        {
                            "internalType": "address",
                            "name": "to",
                            "type": "address"
                        },
                        {
                            "internalType": "uint256",
                            "name": "requestedAmount",
                            "type": "uint256"
                        }
                    ],
                    "internalType": "struct ISignatureTransfer.SignatureTransferDetails[]",
                    "name": "transferDetails",
                    "type": "tuple[]"
                },
                {
                    "internalType": "address",
                    "name": "owner",
                    "type": "address"
                },
                {
                    "internalType": "bytes32",
                    "name": "witness",
                    "type": "bytes32"
                },
                {
                    "internalType": "string",
                    "name": "witnessTypeString",
                    "type": "string"
                },
                {
                    "internalType": "bytes",
                    "name": "signature",
                    "type": "bytes"
                }
            ],
            "name": "permitWitnessTransferFrom",
            "outputs": [],
            "stateMutability": "nonpayable",
            "type": "function"
        },
        {
            "inputs": [
                {
                    "components": [
                        {
                            "internalType": "address",
                            "name": "from",
                            "type": "address"
                        },
                        {
                            "internalType": "address",
                            "name": "to",
                            "type": "address"
                        },
                        {
                            "internalType": "uint160",
                            "name": "amount",
                            "type": "uint160"
                        },
                        {
                            "internalType": "address",
                            "name": "token",
                            "type": "address"
                        }
                    ],
                    "internalType": "struct IAllowanceTransfer.AllowanceTransferDetails[]",
                    "name": "transferDetails",
                    "type": "tuple[]"
                }
            ],
            "name": "transferFrom",
            "outputs": [],
            "stateMutability": "nonpayable",
            "type": "function"
        },
        {
            "inputs": [
                {
                    "internalType": "address",
                    "name": "from",
                    "type": "address"
                },
                {
                    "internalType": "address",
                    "name": "to",
                    "type": "address"
                },
                {
                    "internalType": "uint160",
                    "name": "amount",
                    "type": "uint160"
                },
                {
                    "internalType": "address",
                    "name": "token",
                    "type": "address"
                }
            ],
            "name": "transferFrom",
            "outputs": [],
            "stateMutability": "nonpayable",
            "type": "function"
        }
    ],
    "bytecode": "0x60c0346100bb574660a052602081017f8cad95687ba82c2ce50e74f7b754645e5117c3a5bec8151c0726d5857980a86681527f9ac997416e8ff9d2ff6bebeb7149f65cdae5e32e2b90440b566bb3044041d36a60408301524660608301523060808301526080825260a082019180831060018060401b038411176100a55782604052519020608052611bea90816100c1823960805181611526015260a051816115000152f35b634e487b7160e01b600052604160045260246000fd5b600080fdfe6040608081526004908136101561001557600080fd5b600090813560e01c80630d58b1db14610ea2578063137c29fe14610d1f5780632a2d80d114610ad75780632b67b5701461095257806330f28b7a1461088f5780633644e5151461086c57806336c78516146108175780633ff9dcb1146107b55780634fe02b441461077657806365d9723c1461066657806387517c4514610584578063927da105146104f8578063cc53287f14610417578063edd9444b146102eb5763fe8ec1a7146100c657600080fd5b346102e75760c03660031901126102e7576001600160401b0383358181116102e3576100f590369086016111e7565b6024358281116102df5761010c90369087016111b7565b610114611087565b916084358581116102db5761012c9036908a01611136565b98909560a4359081116102d75761014591369101611136565b96909581519061015482610fce565b606b82527f5065726d697442617463685769746e6573735472616e7366657246726f6d285460208301527f6f6b656e5065726d697373696f6e735b5d207065726d69747465642c61646472838301527f657373207370656e6465722c75696e74323536206e6f6e63652c75696e74323560608301526a0d88191958591b1a5b994b60aa1b608083015282519a8b91816101f160208501809661184f565b918237018a8152039961020c601f199b8c8101835282611004565b5190209085515161021c816117cb565b908a5b8181106102aa5750506102a7999a61029e91835161025181610245602082018095611822565b03848101835282611004565b519020602089810151858b015195519182019687526040820192909252336060820152608081019190915260a081019390935260643560c08401528260e081015b03908101835282611004565b51902093611682565b80f35b806102c26102bc6102d2938c516112e0565b51611901565b6102cc82866112e0565b526117fd565b61021f565b8880fd5b8780fd5b8480fd5b8380fd5b5080fd5b5091346102e75760803660031901126102e7576001600160401b039080358281116102e35761031d90369083016111e7565b6024358381116102df5761033490369084016111b7565b93909261033f611087565b916064359081116104135761035691369101611136565b94909383515197610366896117cb565b98885b8181106103f15750506102a7979881516103998161038b602082018095611822565b03601f198101835282611004565b5190206020860151828701519083519260208401947ffcf35f5ac6a2c28868dc44c302166470266239195f02b0ee408334829333b7668652840152336060840152608083015260a082015260a0815261029e81610fe9565b808b6102cc826104086102bc61040e968d516112e0565b926112e0565b610369565b8680fd5b5082346104f457602090816003193601126102e3578035906001600160401b0382116102df57610449913691016111b7565b929091845b848110610459578580f35b8061046f61046a60019388886113ce565b6113de565b6104848461047e848a8a6113ce565b016113de565b33895283855285892091848060a01b0380911692838b528652868a20911690818a5285528589206bffffffffffffffffffffffff60a01b81541690558551918252848201527f89b1add15eff56b3dfe299ad94e01f2b52fbcb80ae1a3baea6ae8c04cb2b98a4853392a20161044e565b8280fd5b50346102e75760603660031901126102e75761058081610516611049565b9361051f611068565b610527611087565b6001600160a01b03968716835260016020908152848420928816845291825283832090871683528152919020549251938316845260a083901c65ffffffffffff169084015260d09190911c604083015281906060820190565b0390f35b50346102e75760803660031901126102e75761059e611049565b906105a7611068565b916105b061117a565b906064359265ffffffffffff93848116908181036102db577fda9fa7c1b00402c17d0161b249b1ab8bbec047c5a52207b9c112deffd817036b9333895260016020528389209660018060a01b0380921697888b5260205281858b20991698898b52602052848a2092841560001461065e57504216905b82546001600160d01b03191660a09290921b65ffffffffffff60a01b169190911795169485179055815193845260208401523392a480f35b905090610626565b5082346104f45760603660031901126104f457610681611049565b9061068a611068565b9265ffffffffffff60443581811693908481036102db57338852602091600183528489209660018060a01b0380911697888b528452858a20981697888a5283528489205460d01c93848711156107675761ffff90858403161161075957503380895260018352848920878a528352848920888a52835284892080546001600160d01b031660d09390931b6001600160d01b03191692909217909155835194855290840191909152917f55eb90d810e1700b35a8e7e25395ff7f2b2259abd7415ca2284dfb1c246418f39190a480f35b8451631269ad1360e11b8152fd5b508451633ab3447f60e11b8152fd5b50346102e757806003193601126102e75760209181906001600160a01b0361079c611049565b1681528084528181206024358252845220549051908152f35b5082346104f457816003193601126104f4577f3704902f963766a4e561bbaab6e6cdc1b1dd12f6e9e99648da8843b3f46b918d90359160243533855284602052818520848652602052818520818154179055815193845260208401523392a280f35b823461086957608036600319011261086957610831611049565b610839611068565b9061084261117a565b606435926001600160a81b03841684036102df576102a7936001600160a01b03169261130a565b80fd5b50346102e757816003193601126102e7576020906108886114fd565b9051908152f35b508290346104f4576101003660031901126104f4576108ad366110c3565b90806083193601126102e3576108c1611025565b9160e4356001600160401b03811161094e576102a7946108e391369101611136565b9390926108f08351611901565b6020840151828501519083519260208401947f939c21a48a8dbe3a9a2404a1d46691e4d39f6583d6ec6b35714604c986d801068652840152336060840152608083015260a082015260a0815261094581610fe9565b519020916115e9565b8580fd5b5091346102e7576101003660031901126102e75761096e611049565b36602319019160c083126102e357608085519361098a85610fb3565b126102e35784519261099b84610f82565b6001600160a81b039360243592908584168403610413576001600160a01b03938416815260443580851681036102db57602082015265ffffffffffff60643581811681036102d7578983015260843590811681036102db576060820152825260a435948516850361094e5782602083019516855260c4359087830182815260e4356001600160401b0381116102d757610a379036908401611136565b929093804211610ac1575050918591610ab16102a7999a610ab795610a5c885161187a565b90898c511690519083519260208401947ff3841cd1ff0085026a6327b620b67997ce40f282c88a8e905a7a5626e310f3d086528401526060830152608082015260808152610aa981610fce565b5190206115b8565b91611966565b51925116916113f2565b8a5163cd21db4f60e01b81529182015260249150fd5b5091346102e75760606003199181833601126102e357610af5611049565b92602435916001600160401b0391828411610413578490843603011261094e57865196610b2188610fb3565b838201358381116102db578401366023820112156102db578281013590610b4782611163565b90610b5484519283611004565b82825260209260248484019160071b83010191368311610d1b57602401905b828210610cbf5750505089526044610b8d602487016110a6565b95828b01968752013593828a0190858252604435908111610cbb57610bb59036908601611136565b949095804211610ca55750508998995151610bcf816117cb565b908b5b818110610c8257505092889492610ab192610c4f97958351610bfb8161038b8682018095611822565b5190209060018060a01b039a8b8b51169151928551948501957faf1b0d30d2cab0380e68f0689007e3254993c596f2fdd0aaa7f4d04f794408638752850152830152608082015260808152610aa981610fce565b51169082515192845b848110610c63578580f35b80610c7c8585610c7660019587516112e0565b516113f2565b01610c58565b806102c2610c978e9f9e93610c9d94516112e0565b5161187a565b9b9a9b610bd2565b845163cd21db4f60e01b81529182015260249150fd5b8980fd5b608082360312610d1b57846080918751610cd881610f82565b610ce1856110a6565b8152610cee838601611190565b83820152610cfd8986016111a4565b89820152610d0c8d86016111a4565b8d820152815201910190610b73565b8b80fd5b5082346104f4576101403660031901126104f457610d3c366110c3565b91806083193601126102e357610d50611025565b6001600160401b0393906101043585811161041357610d729036908601611136565b9093610124359687116102db57610d92610945966102a798369101611136565b969095825190610da182610fce565b606482527f5065726d69745769746e6573735472616e7366657246726f6d28546f6b656e5060208301527f65726d697373696f6e73207065726d69747465642c6164647265737320737065848301527f6e6465722c75696e74323536206e6f6e63652c75696e7432353620646561646c6060830152631a5b994b60e21b6080830152835194859181610e3760208501809661184f565b918237018b81520393610e52601f1995868101835282611004565b51902092610e608651611901565b6020878101518589015195519182019687526040820192909252336060820152608081019190915260a081019390935260e43560c08401528260e08101610292565b5082346104f4576020806003193601126102e35781356001600160401b039283821161094e573660238301121561094e578101359283116102df576024906007368386831b8401011161041357865b858110610efc578780f35b80821b830190608060231983360301126102d757610f7c888760019460608351610f2581610f82565b610f616084610f358d86016110a6565b94858452610f45604482016110a6565b8097850152610f5660648201611190565b8098850152016110a6565b9182910152868060a01b03808080931695169316911661130a565b01610ef1565b608081019081106001600160401b03821117610f9d57604052565b634e487b7160e01b600052604160045260246000fd5b606081019081106001600160401b03821117610f9d57604052565b60a081019081106001600160401b03821117610f9d57604052565b60c081019081106001600160401b03821117610f9d57604052565b90601f801991011681019081106001600160401b03821117610f9d57604052565b60c4356001600160a81b0381168103611044576001600160a01b031690565b600080fd5b6004356001600160a81b0381168103611044576001600160a01b031690565b6024356001600160a81b0381168103611044576001600160a01b031690565b6044356001600160a81b0381168103611044576001600160a01b031690565b356001600160a81b0381168103611044576001600160a01b031690565b6003190190608082126110445760408051906110de82610fb3565b808294126110445780518181018181106001600160401b03821117610f9d5782526004356001600160a81b03811681036110445760018060a01b03168152602435602082015282526044356020830152606435910152565b9181601f84011215611044578235916001600160401b038311611044576020838186019501011161104457565b6001600160401b038111610f9d5760051b60200190565b604435906001600160a01b038216820361104457565b35906001600160a01b038216820361104457565b359065ffffffffffff8216820361104457565b9181601f84011215611044578235916001600160401b038311611044576020808501948460061b01011161104457565b91909160608184031261104457604080519161120283610fb3565b829481356001600160401b039081811161104457830182601f8201121561104457803561122e81611163565b9261123b87519485611004565b818452602094858086019360061b85010193818511611044579086899897969594939201925b84841061127e575050505050855280820135908501520135910152565b9091929394959697848303126110445788519089820190828210858311176112cb578a92899284526112af876110a6565b8152828701358382015281520193019190889796959493611261565b60246000634e487b7160e01b81526041600452fd5b80518210156112f45760209160051b010190565b634e487b7160e01b600052603260045260246000fd5b92919260018060a01b03604060008284168152600160205282828220961695868252602052818120338252602052209485549565ffffffffffff8760a01c168042116113b657508287169683880361136d575b505061136b95501692611b38565b565b87848416116000146113925760405163f96fb07160e01b815260048101899052602490fd5b838361136b990316906bffffffffffffffffffffffff60a01b16179055388061135d565b60249060405190636c0d979760e11b82526004820152fd5b91908110156112f45760061b0190565b356001600160a81b03811681036110445790565b9065ffffffffffff908160608401511660018060a01b03908185511694826020820151169280866040809401511695169560009187835260016020528383208984526020528383209916988983526020528282209184835460d01c036114ec5791856114e094927fc6a377bfc4eb120024a8ac08eef205be16b817020812c73223e81d1bdb9708ec989796945087156000146114e55742165b6001850160d01b6001600160d01b03191660a09190911b65ffffffffffff60a01b1617179055516001600160a01b03909316835265ffffffffffff938416602084015290921660408201529081906060820190565b0390a4565b508661148b565b8351633ab3447f60e11b8152600490fd5b467f000000000000000000000000000000000000000000000000000000000000000003611548577f000000000000000000000000000000000000000000000000000000000000000090565b60405160208101907f8cad95687ba82c2ce50e74f7b754645e5117c3a5bec8151c0726d5857980a86682527f9ac997416e8ff9d2ff6bebeb7149f65cdae5e32e2b90440b566bb3044041d36a6040820152466060820152306080820152608081526115b281610fce565b51902090565b6115c06114fd565b9060405190602082019261190160f01b845260228301526042820152604281526115b281610f82565b9192909360a43593604084015180421161166a57506020845101518086116116525750918591610ab16116299461162460208801518661177d565b6115b8565b51516001600160a01b031691608435906001600160a81b03821682036110445761136b93611b38565b60249060405190633728b83d60e01b82526004820152fd5b6024906040519063cd21db4f60e01b82526004820152fd5b9590939580515195604092838301518042116117665750848803611752576116b9918691610ab160209b6116248d8801518661177d565b60005b8681106116cd575050505050505050565b6116d88183516112e0565b51886116e583878a6113ce565b0135908981015180831161173b57509181888888600196859661170f575b505050505050016116bc565b6117309561172a9261046a928a8060a01b03905116956113ce565b91611b38565b803888888883611703565b602490865190633728b83d60e01b82526004820152fd5b83516001621398b960e31b03198152600490fd5b60249085519063cd21db4f60e01b82526004820152fd5b90600160ff82161b9160018060a01b0316600052600060205260406000209060081c60005260205260406000208181541880915516156117b957565b604051633ab3447f60e11b8152600490fd5b906117d582611163565b6117e26040519182611004565b82815280926117f3601f1991611163565b0190602036910137565b600019811461180c5760010190565b634e487b7160e01b600052601160045260246000fd5b805160208092019160005b82811061183b575050505090565b83518552938101939281019260010161182d565b9081519160005b838110611867575050016000815290565b8060208092840101518185015201611856565b60405160208101917f65626cad6cb96493bf6f5ebea28756c966f023ab9e8a83a7101849d5573b3678835260018060a01b038082511660408401526020820151166060830152606065ffffffffffff9182604082015116608085015201511660a082015260a0815260c081018181106001600160401b03821117610f9d5760405251902090565b6040516020808201927f618358ac3db8dc274f0cd8829da7e234bd48cd73c4a740aede1adec9846d06a1845260018060a01b03815116604084015201516060820152606081526115b281610f82565b9190826040910312611044576020823592013590565b6000843b611a5f575060418203611a0f5761198382820182611950565b939092604010156112f45760209360009360ff6040608095013560f81c5b60405194855216868401526040830152606082015282805260015afa15611a03576000516001600160a01b039081169182156119f15716036119df57565b604051632057875960e21b8152600490fd5b604051638baa579f60e01b8152600490fd5b6040513d6000823e3d90fd5b60408203611a4d57611a2391810190611950565b6001600160ff1b0381169260ff91821c601b0191821161180c5760209360009360ff6080946119a1565b604051634be6321b60e01b8152600490fd5b918093946020926064604051809781958294630b135d3f60e11b9b8c8552600485015260406024850152816044850152848401378181018301889052601f01601f191681010301916001600160a01b03165afa918215611b2b578192611ae5575b50506001600160e01b03191603611ad357565b604051632c19a72f60e21b8152600490fd5b9091506020813d8211611b23575b81611b0060209383611004565b810103126102e75751906001600160e01b03198216820361086957503880611ac0565b3d9150611af3565b50604051903d90823e3d90fd5b9060006064926020958295604051946323b872dd60e01b86526004860152602485015260448401525af13d15601f3d1160016000511416171615611b7857565b60405162461bcd60e51b81526020600482015260146024820152731514905394d1915497d19493d357d1905253115160621b6044820152606490fdfea26474726f6e582212205edfa79fc15053c7883900cbf4d1e5844ac13c22685a340b724d4affa988e4b764736f6c63430008140033",
    "source": "// SPDX-License-Identifier: MIT\npragma solidity ^0.8.17;\n\nimport {SignatureTransfer} from \"./SignatureTransfer.sol\";\nimport {AllowanceTransfer} from \"./AllowanceTransfer.sol\";\n\n/// @notice Permit2 handles signature-based transfers in SignatureTransfer and allowance-based transfers in AllowanceTransfer.\n/// @dev Users must approve Permit2 before calling any of the transfer functions.\ncontract Permit2 is SignatureTransfer, AllowanceTransfer {\n// Permit2 unifies the two contracts so users have maximal flexibility with their approval.\n}\n",
    "sourcePath": "/Users/whosyourdaddy/Documents/dev/work/tomo/tron/permit2-tron/contracts/Permit2.sol",
    "compiler": {
        "name": "solc",
        "version": "0.8.20+commit.5f1834bc.Emscripten.clang"
    },
    "schemaVersion": "2.0.1",
    "updatedAt": "2025-04-06T19:15:35.215Z"
}