{
  "contractName": "SunswapV2Factory",
  "abi": [
    {
      "inputs": [
        {
          "internalType": "address",
          "name": "_feeToSetter",
          "type": "address"
        }
      ],
      "stateMutability": "nonpayable",
      "type": "constructor"
    },
    {
      "anonymous": false,
      "inputs": [
        {
          "indexed": true,
          "internalType": "address",
          "name": "token0",
          "type": "address"
        },
        {
          "indexed": true,
          "internalType": "address",
          "name": "token1",
          "type": "address"
        },
        {
          "indexed": false,
          "internalType": "address",
          "name": "pair",
          "type": "address"
        },
        {
          "indexed": false,
          "internalType": "uint256",
          "name": "",
          "type": "uint256"
        }
      ],
      "name": "PairCreated",
      "type": "event"
    },
    {
      "inputs": [
        {
          "internalType": "uint256",
          "name": "",
          "type": "uint256"
        }
      ],
      "name": "allPairs",
      "outputs": [
        {
          "internalType": "address",
          "name": "",
          "type": "address"
        }
      ],
      "stateMutability": "view",
      "type": "function"
    },
    {
      "inputs": [],
      "name": "feeTo",
      "outputs": [
        {
          "internalType": "address",
          "name": "",
          "type": "address"
        }
      ],
      "stateMutability": "view",
      "type": "function"
    },
    {
      "inputs": [],
      "name": "feeToSetter",
      "outputs": [
        {
          "internalType": "address",
          "name": "",
          "type": "address"
        }
      ],
      "stateMutability": "view",
      "type": "function"
    },
    {
      "inputs": [
        {
          "internalType": "address",
          "name": "",
          "type": "address"
        },
        {
          "internalType": "address",
          "name": "",
          "type": "address"
        }
      ],
      "name": "getPair",
      "outputs": [
        {
          "internalType": "address",
          "name": "",
          "type": "address"
        }
      ],
      "stateMutability": "view",
      "type": "function"
    },
    {
      "inputs": [],
      "name": "allPairsLength",
      "outputs": [
        {
          "internalType": "uint256",
          "name": "",
          "type": "uint256"
        }
      ],
      "stateMutability": "view",
      "type": "function"
    },
    {
      "inputs": [
        {
          "internalType": "address",
          "name": "tokenA",
          "type": "address"
        },
        {
          "internalType": "address",
          "name": "tokenB",
          "type": "address"
        }
      ],
      "name": "createPair",
      "outputs": [
        {
          "internalType": "address",
          "name": "pair",
          "type": "address"
        }
      ],
      "stateMutability": "nonpayable",
      "type": "function"
    },
    {
      "inputs": [
        {
          "internalType": "address",
          "name": "_feeTo",
          "type": "address"
        }
      ],
      "name": "setFeeTo",
      "outputs": [],
      "stateMutability": "nonpayable",
      "type": "function"
    },
    {
      "inputs": [
        {
          "internalType": "address",
          "name": "_feeToSetter",
          "type": "address"
        }
      ],
      "name": "setFeeToSetter",
      "outputs": [],
      "stateMutability": "nonpayable",
      "type": "function"
    },
    {
      "inputs": [],
      "name": "getPairHash",
      "outputs": [
        {
          "internalType": "bytes32",
          "name": "",
          "type": "bytes32"
        }
      ],
      "stateMutability": "pure",
      "type": "function"
    }
  ],
  "bytecode": "0x608060405234801561001057600080fd5b506040516129f83803806129f88339818101604052602081101561003357600080fd5b5051600180546001600160a01b0319166001600160a01b03909216919091179055612995806100636000396000f3fe608060405234801561001057600080fd5b50600436106100935760003560e01c806379a3bc4e1161006657806379a3bc4e146100fb578063a2e74af614610103578063c9c653961461012b578063e6a4390514610159578063f46901ed1461018757610093565b8063017e7e5814610098578063094b7415146100bc5780631e3dd18b146100c4578063574f2ba3146100e1575b600080fd5b6100a06101ad565b604080516001600160a01b039092168252519081900360200190f35b6100a06101bc565b6100a0600480360360208110156100da57600080fd5b50356101cb565b6100e96101f2565b60408051918252519081900360200190f35b6100e96101f8565b6101296004803603602081101561011957600080fd5b50356001600160a01b031661022a565b005b6100a06004803603604081101561014157600080fd5b506001600160a01b03813581169160200135166102a2565b6100a06004803603604081101561016f57600080fd5b506001600160a01b03813581169160200135166105cd565b6101296004803603602081101561019d57600080fd5b50356001600160a01b03166105f3565b6000546001600160a01b031681565b6001546001600160a01b031681565b600381815481106101d857fe5b6000918252602090912001546001600160a01b0316905081565b60035490565b60006040518060200161020a9061066b565b6020820181038252601f19601f8201166040525080519060200120905090565b6001546001600160a01b03163314610280576040805162461bcd60e51b815260206004820152601460248201527329bab739bbb0b82b191d102327a92124a22222a760611b604482015290519081900360640190fd5b600180546001600160a01b0319166001600160a01b0392909216919091179055565b6000816001600160a01b0316836001600160a01b0316141561030b576040805162461bcd60e51b815260206004820152601e60248201527f53756e7377617056323a204944454e544943414c5f4144445245535345530000604482015290519081900360640190fd5b600080836001600160a01b0316856001600160a01b03161061032e578385610331565b84845b90925090506001600160a01b038216610391576040805162461bcd60e51b815260206004820152601760248201527f53756e7377617056323a205a45524f5f41444452455353000000000000000000604482015290519081900360640190fd5b6001600160a01b03828116600090815260026020908152604080832085851684529091529020541615610404576040805162461bcd60e51b815260206004820152601660248201527553756e7377617056323a20504149525f45584953545360501b604482015290519081900360640190fd5b6060604051806020016104169061066b565b6020820181038252601f19601f8201166040525090506000838360405160200180836001600160a01b031660601b8152601401826001600160a01b031660601b815260140192505050604051602081830303815290604052805190602001209050808251602084016000f59450846001600160a01b031663485cc95585856040518363ffffffff1660e01b815260040180836001600160a01b03168152602001826001600160a01b0316815260200192505050600060405180830381600087803b1580156104e357600080fd5b505af11580156104f7573d6000803e3d6000fd5b505050506001600160a01b0384811660008181526002602081815260408084208987168086529083528185208054978d166001600160a01b031998891681179091559383528185208686528352818520805488168517905560038054600181018255958190527fc2575a0e9e593c00f959f8c92f12db2869c3395a3b0502d05e2516446f71f85b90950180549097168417909655925483519283529082015281517f0d3648bd0f6ba80134a33ba9275ac585d9d315f0ad8355cddefde31afa28d0e9929181900390910190a35050505092915050565b60026020908152600092835260408084209091529082529020546001600160a01b031681565b6001546001600160a01b03163314610649576040805162461bcd60e51b815260206004820152601460248201527329bab739bbb0b82b191d102327a92124a22222a760611b604482015290519081900360640190fd5b600080546001600160a01b0319166001600160a01b0392909216919091179055565b6122e7806106798339019056fe60806040526001600c5534801561001557600080fd5b50604080518082018252600a81526929bab739bbb0b8102b1960b11b602091820152815180830183526001808252603160f81b9183019190915282517f8b73c3c69bb8fe3d512ecc4cf759cc79239f7b179b0ffacaa9a75d522b39400f818401527fe5fbcd3b3bc052aa062fceba1f570d6eb2419d629a3e775c94f5ac1b673a468c818501527fc89efdaa54c0f20c7adf612882df0950f5a951637e0307cdcb4c672f298b8bc6606082015260808101919091523060a0808301919091528351808303909101815260c09091019092528151910120600355600580546001600160a01b031916331790556121d98061010e6000396000f3fe608060405234801561001057600080fd5b50600436106101a95760003560e01c80636a627842116100f9578063ba9a7a5611610097578063d21220a711610071578063d21220a714610534578063d505accf1461053c578063dd62ed3e1461058d578063fff6cae9146105bb576101a9565b8063ba9a7a56146104fe578063bc25cf7714610506578063c45a01551461052c576101a9565b80637ecebe00116100d35780637ecebe001461046557806389afcb441461048b57806395d89b41146104ca578063a9059cbb146104d2576101a9565b80636a6278421461041157806370a08231146104375780637464fc3d1461045d576101a9565b806323b872dd116101665780633644e515116101405780633644e515146103cb578063485cc955146103d35780635909c0d5146104015780635a3d549314610409576101a9565b806323b872dd1461036f57806330adf81f146103a5578063313ce567146103ad576101a9565b8063022c0d9f146101ae57806306fdde031461023c5780630902f1ac146102b9578063095ea7b3146102f15780630dfe16811461033157806318160ddd14610355575b600080fd5b61023a600480360360808110156101c457600080fd5b8135916020810135916001600160a01b0360408301351691908101906080810160608201356401000000008111156101fb57600080fd5b82018360208201111561020d57600080fd5b8035906020019184600183028401116401000000008311171561022f57600080fd5b5090925090506105c3565b005b610244610acb565b6040805160208082528351818301528351919283929083019185019080838360005b8381101561027e578181015183820152602001610266565b50505050905090810190601f1680156102ab5780820380516001836020036101000a031916815260200191505b509250505060405180910390f35b6102c1610af1565b604080516001600160701b03948516815292909316602083015263ffffffff168183015290519081900360600190f35b61031d6004803603604081101561030757600080fd5b506001600160a01b038135169060200135610b1b565b604080519115158252519081900360200190f35b610339610b32565b604080516001600160a01b039092168252519081900360200190f35b61035d610b41565b60408051918252519081900360200190f35b61031d6004803603606081101561038557600080fd5b506001600160a01b03813581169160208101359091169060400135610b47565b61035d610bdb565b6103b5610bff565b6040805160ff9092168252519081900360200190f35b61035d610c04565b61023a600480360360408110156103e957600080fd5b506001600160a01b0381358116916020013516610c0a565b61035d610c8e565b61035d610c94565b61035d6004803603602081101561042757600080fd5b50356001600160a01b0316610c9a565b61035d6004803603602081101561044d57600080fd5b50356001600160a01b0316610f76565b61035d610f88565b61035d6004803603602081101561047b57600080fd5b50356001600160a01b0316610f8e565b6104b1600480360360208110156104a157600080fd5b50356001600160a01b0316610fa0565b6040805192835260208301919091528051918290030190f35b610244611334565b61031d600480360360408110156104e857600080fd5b506001600160a01b038135169060200135611356565b61035d611363565b61023a6004803603602081101561051c57600080fd5b50356001600160a01b0316611369565b6103396114db565b6103396114ea565b61023a600480360360e081101561055257600080fd5b506001600160a01b03813581169160208101359091169060408101359060608101359060ff6080820135169060a08101359060c001356114f9565b61035d600480360360408110156105a357600080fd5b506001600160a01b03813581169160200135166116fb565b61023a611718565b600c5460011461060e576040805162461bcd60e51b815260206004820152601160248201527014dd5b9cddd85c158c8e881313d0d2d151607a1b604482015290519081900360640190fd5b6000600c55841515806106215750600084115b61065c5760405162461bcd60e51b81526004018080602001828103825260258152602001806120ea6025913960400191505060405180910390fd5b600080610667610af1565b5091509150816001600160701b03168710801561068c5750806001600160701b031686105b6106c75760405162461bcd60e51b81526004018080602001828103825260218152602001806121836021913960400191505060405180910390fd5b60065460075460009182916001600160a01b039182169190811690891682148015906107055750806001600160a01b0316896001600160a01b031614155b61074e576040805162461bcd60e51b815260206004820152601560248201527453756e7377617056323a20494e56414c49445f544f60581b604482015290519081900360640190fd5b8a1561075f5761075f828a8d61187a565b891561077057610770818a8c61187a565b861561082257886001600160a01b031663a7b43784338d8d8c8c6040518663ffffffff1660e01b815260040180866001600160a01b03168152602001858152602001848152602001806020018281038252848482818152602001925080828437600081840152601f19601f8201169050808301925050509650505050505050600060405180830381600087803b15801561080957600080fd5b505af115801561081d573d6000803e3d6000fd5b505050505b604080516370a0823160e01b815230600482015290516001600160a01b038416916370a08231916024808301926020929190829003018186803b15801561086857600080fd5b505afa15801561087c573d6000803e3d6000fd5b505050506040513d602081101561089257600080fd5b5051604080516370a0823160e01b815230600482015290519195506001600160a01b038316916370a0823191602480820192602092909190829003018186803b1580156108de57600080fd5b505afa1580156108f2573d6000803e3d6000fd5b505050506040513d602081101561090857600080fd5b5051925060009150506001600160701b0385168a9003831161092b57600061093a565b89856001600160701b03160383035b9050600089856001600160701b0316038311610957576000610966565b89856001600160701b03160383035b905060008211806109775750600081115b6109b25760405162461bcd60e51b81526004018080602001828103825260248152602001806121376024913960400191505060405180910390fd5b60006109d46109c2846003611a1b565b6109ce876103e8611a1b565b90611a7e565b905060006109e66109c2846003611a1b565b9050610a0b620f4240610a056001600160701b038b8116908b16611a1b565b90611a1b565b610a158383611a1b565b1015610a57576040805162461bcd60e51b815260206004820152600c60248201526b53756e7377617056323a204b60a01b604482015290519081900360640190fd5b5050610a6584848888611ace565b60408051838152602081018390528082018d9052606081018c905290516001600160a01b038b169133917fd78ad95fa46c994b6551d0da85fc275fe613ce37657fb8d5e3d130840159d8229181900360800190a350506001600c55505050505050505050565b6040518060400160405280600a81526020016929bab739bbb0b8102b1960b11b81525081565b6008546001600160701b0380821692600160701b830490911691600160e01b900463ffffffff1690565b6000610b28338484611c8d565b5060015b92915050565b6006546001600160a01b031681565b60005481565b6001600160a01b038316600090815260026020908152604080832033845290915281205460001914610bc6576001600160a01b0384166000908152600260209081526040808320338452909152902054610ba19083611a7e565b6001600160a01b03851660009081526002602090815260408083203384529091529020555b610bd1848484611cef565b5060019392505050565b7f6e71edae12b1b97f4d1f60370fef10105fa2faae0126114a169c64845d6126c981565b601281565b60035481565b6005546001600160a01b03163314610c60576040805162461bcd60e51b815260206004820152601460248201527329bab739bbb0b82b191d102327a92124a22222a760611b604482015290519081900360640190fd5b600680546001600160a01b039384166001600160a01b03199182161790915560078054929093169116179055565b60095481565b600a5481565b6000600c54600114610ce7576040805162461bcd60e51b815260206004820152601160248201527014dd5b9cddd85c158c8e881313d0d2d151607a1b604482015290519081900360640190fd5b6000600c81905580610cf7610af1565b50600654604080516370a0823160e01b815230600482015290519395509193506000926001600160a01b03909116916370a08231916024808301926020929190829003018186803b158015610d4b57600080fd5b505afa158015610d5f573d6000803e3d6000fd5b505050506040513d6020811015610d7557600080fd5b5051600754604080516370a0823160e01b815230600482015290519293506000926001600160a01b03909216916370a0823191602480820192602092909190829003018186803b158015610dc857600080fd5b505afa158015610ddc573d6000803e3d6000fd5b505050506040513d6020811015610df257600080fd5b505190506000610e0b836001600160701b038716611a7e565b90506000610e22836001600160701b038716611a7e565b90506000610e308787611d9d565b60005490915080610e6757610e536103e86109ce610e4e8787611a1b565b611edd565b9850610e6260006103e8611f2f565b610eaa565b610ea76001600160701b038916610e7e8684611a1b565b81610e8557fe5b046001600160701b038916610e9a8685611a1b565b81610ea157fe5b04611fb9565b98505b60008911610ee95760405162461bcd60e51b815260040180806020018281038252602881526020018061215b6028913960400191505060405180910390fd5b610ef38a8a611f2f565b610eff86868a8a611ace565b8115610f2957600854610f25906001600160701b0380821691600160701b900416611a1b565b600b555b6040805185815260208101859052815133927f4c209b5fc8ad50758f13e2e1088ba56a560dff690a1c6fef26394f4c03821c4f928290030190a250506001600c5550949695505050505050565b60016020526000908152604090205481565b600b5481565b60046020526000908152604090205481565b600080600c54600114610fee576040805162461bcd60e51b815260206004820152601160248201527014dd5b9cddd85c158c8e881313d0d2d151607a1b604482015290519081900360640190fd5b6000600c81905580610ffe610af1565b50600654600754604080516370a0823160e01b815230600482015290519496509294506001600160a01b039182169391169160009184916370a08231916024808301926020929190829003018186803b15801561105a57600080fd5b505afa15801561106e573d6000803e3d6000fd5b505050506040513d602081101561108457600080fd5b5051604080516370a0823160e01b815230600482015290519192506000916001600160a01b038516916370a08231916024808301926020929190829003018186803b1580156110d257600080fd5b505afa1580156110e6573d6000803e3d6000fd5b505050506040513d60208110156110fc57600080fd5b50513060009081526001602052604081205491925061111b8888611d9d565b6000549091508061112c8487611a1b565b8161113357fe5b049a50806111418486611a1b565b8161114857fe5b04995060008b11801561115b575060008a115b6111965760405162461bcd60e51b815260040180806020018281038252602881526020018061210f6028913960400191505060405180910390fd5b6111a03084611fd1565b6111ab878d8d61187a565b6111b6868d8c61187a565b604080516370a0823160e01b815230600482015290516001600160a01b038916916370a08231916024808301926020929190829003018186803b1580156111fc57600080fd5b505afa158015611210573d6000803e3d6000fd5b505050506040513d602081101561122657600080fd5b5051604080516370a0823160e01b815230600482015290519196506001600160a01b038816916370a0823191602480820192602092909190829003018186803b15801561127257600080fd5b505afa158015611286573d6000803e3d6000fd5b505050506040513d602081101561129c57600080fd5b505193506112ac85858b8b611ace565b81156112d6576008546112d2906001600160701b0380821691600160701b900416611a1b565b600b555b604080518c8152602081018c905281516001600160a01b038f169233927fdccd412f0b1252819cb1fd330b93224ca42612892bb3f4f789976e6d81936496929081900390910190a35050505050505050506001600c81905550915091565b604051806040016040528060068152602001652aa72496ab1960d11b81525081565b6000610b28338484611cef565b6103e881565b600c546001146113b4576040805162461bcd60e51b815260206004820152601160248201527014dd5b9cddd85c158c8e881313d0d2d151607a1b604482015290519081900360640190fd5b6000600c55600654600754600854604080516370a0823160e01b815230600482015290516001600160a01b03948516949093169261145d9285928792611458926001600160701b03169185916370a0823191602480820192602092909190829003018186803b15801561142657600080fd5b505afa15801561143a573d6000803e3d6000fd5b505050506040513d602081101561145057600080fd5b505190611a7e565b61187a565b6114d181846114586008600e9054906101000a90046001600160701b03166001600160701b0316856001600160a01b03166370a08231306040518263ffffffff1660e01b815260040180826001600160a01b0316815260200191505060206040518083038186803b15801561142657600080fd5b50506001600c5550565b6005546001600160a01b031681565b6007546001600160a01b031681565b42841015611543576040805162461bcd60e51b815260206004820152601260248201527114dd5b9cddd85c158c8e881156141254915160721b604482015290519081900360640190fd5b6003546001600160a01b0380891660008181526004602090815260408083208054600180820190925582517f6e71edae12b1b97f4d1f60370fef10105fa2faae0126114a169c64845d6126c98186015280840196909652958d166060860152608085018c905260a085019590955260c08085018b90528151808603909101815260e08501825280519083012061190160f01b6101008601526101028501969096526101228085019690965280518085039096018652610142840180825286519683019690962095839052610162840180825286905260ff89166101828501526101a284018890526101c28401879052519193926101e280820193601f1981019281900390910190855afa15801561165e573d6000803e3d6000fd5b5050604051601f1901519150506001600160a01b038116158015906116945750886001600160a01b0316816001600160a01b0316145b6116e5576040805162461bcd60e51b815260206004820152601c60248201527f53756e7377617056323a20494e56414c49445f5349474e415455524500000000604482015290519081900360640190fd5b6116f0898989611c8d565b505050505050505050565b600260209081526000928352604080842090915290825290205481565b600c54600114611763576040805162461bcd60e51b815260206004820152601160248201527014dd5b9cddd85c158c8e881313d0d2d151607a1b604482015290519081900360640190fd5b6000600c55600654604080516370a0823160e01b81523060048201529051611873926001600160a01b0316916370a08231916024808301926020929190829003018186803b1580156117b457600080fd5b505afa1580156117c8573d6000803e3d6000fd5b505050506040513d60208110156117de57600080fd5b5051600754604080516370a0823160e01b815230600482015290516001600160a01b03909216916370a0823191602480820192602092909190829003018186803b15801561182b57600080fd5b505afa15801561183f573d6000803e3d6000fd5b505050506040513d602081101561185557600080fd5b50516008546001600160701b0380821691600160701b900416611ace565b6001600c55565b604080516001600160a01b038481166024830152604480830185905283518084039091018152606490920183526020820180516001600160e01b031663a9059cbb60e01b178152925182516000946060949389169392918291908083835b602083106118f75780518252601f1990920191602091820191016118d8565b6001836020036101000a0380198251168184511680821785525050505050509050019150506000604051808303816000865af19150503d8060008114611959576040519150601f19603f3d011682016040523d82523d6000602084013e61195e565b606091505b5090925090506001600160a01b03851673eca9bc828a3005b9a3b909f2cc5c2a54794de05f14801561198d5750815b15611999575050611a16565b8180156119c25750805115806119c257508080602001905160208110156119bf57600080fd5b50515b611a13576040805162461bcd60e51b815260206004820152601f60248201527f5472616e7366657248656c7065723a205452414e534645525f4641494c454400604482015290519081900360640190fd5b50505b505050565b6000811580611a3657505080820282828281611a3357fe5b04145b610b2c576040805162461bcd60e51b815260206004820152601460248201527364732d6d6174682d6d756c2d6f766572666c6f7760601b604482015290519081900360640190fd5b80820382811115610b2c576040805162461bcd60e51b815260206004820152601560248201527464732d6d6174682d7375622d756e646572666c6f7760581b604482015290519081900360640190fd5b6001600160701b038411801590611aec57506001600160701b038311155b611b33576040805162461bcd60e51b815260206004820152601360248201527253756e7377617056323a204f564552464c4f5760681b604482015290519081900360640190fd5b60085463ffffffff42811691600160e01b90048116820390811615801590611b6357506001600160701b03841615155b8015611b7757506001600160701b03831615155b15611be2578063ffffffff16611b9f85611b9086612063565b6001600160e01b031690612075565b600980546001600160e01b03929092169290920201905563ffffffff8116611bca84611b9087612063565b600a80546001600160e01b0392909216929092020190555b600880546dffffffffffffffffffffffffffff19166001600160701b03888116919091176dffffffffffffffffffffffffffff60701b1916600160701b8883168102919091176001600160e01b0316600160e01b63ffffffff871602179283905560408051848416815291909304909116602082015281517f1c411e9a96e071241c2f21f7726b17ae89e3cab4c78be50e062b03a9fffbbad1929181900390910190a1505050505050565b6001600160a01b03808416600081815260026020908152604080832094871680845294825291829020859055815185815291517f8c5be1e5ebec7d5bd14f71427d1e84f3dd0314c0f7b2291e5b200ac8c7c3b9259281900390910190a3505050565b6001600160a01b038316600090815260016020526040902054611d129082611a7e565b6001600160a01b038085166000908152600160205260408082209390935590841681522054611d41908261209a565b6001600160a01b0380841660008181526001602090815260409182902094909455805185815290519193928716927fddf252ad1be2c89b69c2b068fc378daa952ba7f163c4a11628f55a4df523b3ef92918290030190a3505050565b600080600560009054906101000a90046001600160a01b03166001600160a01b031663017e7e586040518163ffffffff1660e01b815260040160206040518083038186803b158015611dee57600080fd5b505afa158015611e02573d6000803e3d6000fd5b505050506040513d6020811015611e1857600080fd5b5051600b546001600160a01b038216158015945091925090611ec9578015611ec4576000611e55610e4e6001600160701b03888116908816611a1b565b90506000611e6283611edd565b905080821115611ec1576000611e84611e7b8484611a7e565b60005490611a1b565b90506000611e9d83611e97866005611a1b565b9061209a565b90506000818381611eaa57fe5b0490508015611ebd57611ebd8782611f2f565b5050505b50505b611ed5565b8015611ed5576000600b555b505092915050565b60006003821115611f20575080600160028204015b81811015611f1a57809150600281828581611f0957fe5b040181611f1257fe5b049050611ef2565b50611f2a565b8115611f2a575060015b919050565b600054611f3c908261209a565b60009081556001600160a01b038316815260016020526040902054611f61908261209a565b6001600160a01b03831660008181526001602090815260408083209490945583518581529351929391927fddf252ad1be2c89b69c2b068fc378daa952ba7f163c4a11628f55a4df523b3ef9281900390910190a35050565b6000818310611fc85781611fca565b825b9392505050565b6001600160a01b038216600090815260016020526040902054611ff49082611a7e565b6001600160a01b0383166000908152600160205260408120919091555461201b9082611a7e565b60009081556040805183815290516001600160a01b038516917fddf252ad1be2c89b69c2b068fc378daa952ba7f163c4a11628f55a4df523b3ef919081900360200190a35050565b6001600160701b0316600160701b0290565b60006001600160701b0382166001600160e01b0384168161209257fe5b049392505050565b80820182811015610b2c576040805162461bcd60e51b815260206004820152601460248201527364732d6d6174682d6164642d6f766572666c6f7760601b604482015290519081900360640190fdfe53756e7377617056323a20494e53554646494349454e545f4f55545055545f414d4f554e5453756e7377617056323a20494e53554646494349454e545f4c49515549444954595f4255524e454453756e7377617056323a20494e53554646494349454e545f494e5055545f414d4f554e5453756e7377617056323a20494e53554646494349454e545f4c49515549444954595f4d494e54454453756e7377617056323a20494e53554646494349454e545f4c4951554944495459a264697066735822122092e80d02b317778d4f9d16f242dc1c37684ccf82f723f1dfba9b1f4ae8272bfb64736f6c634300060c0033a264697066735822122006c8bd2b1c2f568e16bcdaa04f0b8a735ee8375c226e7214ba78a3f22b97bf9464736f6c634300060c0033",
  "source": "// SPDX-License-Identifier: GPL-3.0-or-later\npragma solidity >=0.6.12 <0.8.0;\n\nimport './interfaces/ISunswapV2Factory.sol';\nimport './SunswapV2Pair.sol';\n\ncontract SunswapV2Factory is ISunswapV2Factory {\n    address public override feeTo;\n    address public override feeToSetter;\n\n    mapping(address => mapping(address => address)) public override getPair;\n    address[] public override allPairs;\n\n    event PairCreated(address indexed token0, address indexed token1, address pair, uint);\n\n    constructor(address _feeToSetter) public {\n        feeToSetter = _feeToSetter;\n    }\n\n    function allPairsLength() external view override returns (uint) {\n        return allPairs.length;\n    }\n\n    function createPair(address tokenA, address tokenB) external override returns (address pair) {\n        require(tokenA != tokenB, 'SunswapV2: IDENTICAL_ADDRESSES');\n        (address token0, address token1) = tokenA < tokenB ? (tokenA, tokenB) : (tokenB, tokenA);\n        require(token0 != address(0), 'SunswapV2: ZERO_ADDRESS');\n        require(getPair[token0][token1] == address(0), 'SunswapV2: PAIR_EXISTS');\n        // single check is sufficient\n        bytes memory bytecode = type(SunswapV2Pair).creationCode;\n        bytes32 salt = keccak256(abi.encodePacked(token0, token1));\n        assembly {\n            pair := create2(0, add(bytecode, 32), mload(bytecode), salt)\n        }\n        ISunswapV2Pair(pair).initialize(token0, token1);\n        getPair[token0][token1] = pair;\n        getPair[token1][token0] = pair; // populate mapping in the reverse direction\n        allPairs.push(pair);\n        emit PairCreated(token0, token1, pair, allPairs.length);\n    }\n\n    function setFeeTo(address _feeTo) external override {\n        require(msg.sender == feeToSetter, 'SunswapV2: FORBIDDEN');\n        feeTo = _feeTo;\n    }\n\n    function setFeeToSetter(address _feeToSetter) external override {\n        require(msg.sender == feeToSetter, 'SunswapV2: FORBIDDEN');\n        feeToSetter = _feeToSetter;\n    }\n\n    function getPairHash() public pure returns (bytes32) {\n        return keccak256(type(SunswapV2Pair).creationCode);\n    }\n}\n",
  "sourcePath": "/Users/whosyourdaddy/Documents/dev/work/tomo/sunswap/sunswap2.0-contracts/contracts/SunswapV2Factory.sol",
  "compiler": {
    "name": "solc",
    "version": "0.6.12+commit.27d51765.Emscripten.clang"
  },
  "schemaVersion": "2.0.1",
  "updatedAt": "2025-04-03T09:45:15.384Z"
}