{
  "_format": "hh-sol-artifact-1",
  "contractName": "TomoProtocol",
  "sourceName": "src/TomoProtocol.sol",
  "abi": [
    {
      "inputs": [
        {
          "internalType": "address",
          "name": "router",
          "type": "address"
        },
        {
          "internalType": "address",
          "name": "permit2",
          "type": "address"
        }
      ],
      "stateMutability": "nonpayable",
      "type": "constructor"
    },
    {
      "inputs": [],
      "name": "ReentrancyGuardReentrantCall",
      "type": "error"
    },
    {
      "inputs": [],
      "name": "SliceOutOfBounds",
      "type": "error"
    },
    {
      "inputs": [
        {
          "internalType": "bytes",
          "name": "commands",
          "type": "bytes"
        },
        {
          "internalType": "bytes[]",
          "name": "inputs",
          "type": "bytes[]"
        },
        {
          "internalType": "uint256",
          "name": "deadline",
          "type": "uint256"
        }
      ],
      "name": "execute",
      "outputs": [],
      "stateMutability": "payable",
      "type": "function"
    },
    {
      "stateMutability": "payable",
      "type": "receive"
    }
  ],
  "bytecode": "0x60c0604052346200004a576200001f6200001862000101565b9062000154565b604051610d34620001bd82396080518181816109760152610bc0015260a051816108fc0152610d3490f35b600080fd5b634e487b7160e01b600052604160045260246000fd5b90601f01601f191681019081106001600160401b038211176200008757604052565b6200004f565b90620000a46200009c60405190565b928362000065565b565b6001600160a81b038116036200004a57565b6001600160a01b031690565b90565b620000c4915051620000b881620000a6565b91906040838203126200004a57620000c490620000f78185620000c7565b93602001620000c7565b6200012462000ef18038038062000118816200008d565b928339810190620000d9565b9091565b620000c490620000b8906001600160a01b031682565b620000c49062000128565b620000c4906200013e565b906200016d9162000164620001a6565b60805262000149565b60a052565b620000c4620000c4620000c49290565b620000c4600162000172565b90620000c4620000c4620001a29262000172565b9055565b620000a4620001b462000182565b60006200018e56fe6080604052600436101561001b575b361561001957600080fd5b005b60003560e01c633593564c0361000e57610108565b909182601f830112156100605781359167ffffffffffffffff831161006057602001926001830284011161006057565b600080fd5b909182601f830112156100605781359167ffffffffffffffff831161006057602001926020830284011161006057565b805b0361006057565b905035906100ab82610095565b565b60608183031261006057803567ffffffffffffffff811161006057826100d4918301610030565b929093602083013567ffffffffffffffff8111610060576100fa83610105928601610065565b93909460400161009e565b90565b61011f6101163660046100ad565b93929092610c04565b604051005b9061013994939291610134610c40565b610879565b6100ab610c8a565b634e487b7160e01b600052603260045260246000fd5b9190811015610164570190565b610141565b6101056101056101059290565b903590601e193682900301821215610060570180359067ffffffffffffffff8211610060576020019136829003831361006057565b908210156101645760206101c29202810190610176565b9091565b6101d96101d36101059290565b60f81b90565b6001600160f81b03191690565b610105603f6101c6565b6102006101056101059260ff1690565b60ff1690565b6101059060f81c6101f0565b610105600a610169565b6101056101056101059260ff1690565b90826000939282370152565b91906102568161024f816102609560209181520190565b809561022c565b601f01601f191690565b0190565b906101059291610238565b9035601e19368390030181121561006057016020813591019167ffffffffffffffff82116100605736829003831361006057565b8183529160200190816102b96020830284019490565b92836000925b8484106102cf5750505050505090565b90919293949560206102fc6102f583856001950388526102ef8b8861026f565b90610264565b9860200190565b9401940192949391906102bf565b9052565b9594926100ab9461033161033f9360409560608b01918b830360008d0152610238565b9188830360208a01526102a3565b940152565b634e487b7160e01b600052604160045260246000fd5b90601f01601f1916810190811067ffffffffffffffff82111761037c57604052565b610344565b906100ab61038e60405190565b928361035a565b67ffffffffffffffff811161037c57602090601f01601f19160190565b906103c46103bf83610395565b610381565b918252565b3d156103e3576103d83d6103b2565b903d6000602084013e565b606090565b156103ef57565b60405162461bcd60e51b815260206004820152601760248201527f526f7574657220657865637574696f6e206661696c65640000000000000000006044820152606490fd5b61010590610448906001600160a01b031682565b6001600160a01b031690565b61010590610434565b61010590610454565b600091031261006057565b61030a90610448565b6001600160a81b038116610097565b6101059150356104988161047a565b610448565b50610105906020810190610489565b6001600160a01b038116610097565b905035906100ab826104ac565b506101059060208101906104bb565b65ffffffffffff8116610097565b905035906100ab826104d7565b506101059060208101906104e5565b90606061056a6100ab9361052261051b600083018361049d565b8590610471565b61054261053260208301836104c8565b6001600160a01b03166020860152565b61056161055260408301836104f2565b65ffffffffffff166040860152565b828101906104f2565b65ffffffffffff16910152565b5061010590602081019061009e565b6100ab919060a0906105bf9061059c8482610501565b6105b66105ac608083018361049d565b6080860190610471565b82810190610577565b910152565b6105ec61010595939492946105e26101008401966000850190610471565b6020830190610586565b60e0818503910152610238565b6040513d6000823e3d90fd5b35610105816104ac565b356101058161047a565b6106556100ab9461064560609498979561063b608086019a6000870190610471565b6020850190610471565b6001600160a01b03166040830152565b0190610471565b634e487b7160e01b600052601160045260246000fd5b9190820391821161067f57565b61065c565b369037565b906100ab61069f610699846103b2565b93610395565b601f190160208401610684565b600019811461067f5760010190565b906106c4825190565b811015610164570160200190565b67ffffffffffffffff811161037c5760208091020190565b906103c46103bf836106d2565b60005b82811061070657505050565b6060828201526020016106fa565b906100ab61072a610724846106ea565b936106d2565b601f1901602084016106f7565b90610740825190565b811015610164576020809102010190565b909291926107616103bf82610395565b93818552602085019082840111610060576100ab9261022c565b610105913691610751565b60005b8381106107995750506000910152565b8181015183820152602001610789565b6107ca610256602093610260936107be815190565b80835293849260200190565b95869101610786565b90610105916107a9565b906107f36107e9835190565b8083529160200190565b90816108056020830284019460200190565b926000915b83831061081957505050505090565b9091929394602061083c610835838560019503875289516107d3565b9760200190565b930193019193929061080a565b93929061033f6100ab9361086b604093606089019089820360008b01526107a9565b9087820360208901526107dd565b600094916108a161089361088c88610169565b8385610157565b356001600160f81b03191690565b946108c96108b86108b189610169565b83886101ab565b9190976108c36101e6565b16610206565b6108dd6108d7610105610212565b9161021c565b03610bab576108f7906108f06006610169565b9088610c9c565b6109207f000000000000000000000000000000000000000000000000000000000000000061045d565b91632b67b570903392843b15610060578a9261095b61094f928e9461094460405190565b968795869560e01b90565b855288600486016105c4565b038183875af18015610b8a57610b8f575b506336c7851690897f00000000000000000000000000000000000000000000000000000000000000009901926109af8b6109a860208701610605565b950161060f565b93813b15610060578b80946109e48d976109d9946109cc60405190565b998a988997889660e01b90565b865260048601610619565b03925af18015610b8a57610b5e575b5081926001928391610a15610a10610a0a85610169565b88610672565b610689565b9583610a2081610169565b905b610b14575b5050505050610a338190565b94610a48610a43610a0a85610169565b610714565b9583610a5381610169565b905b610ab8575b505050505091849391610aa16100ab9694610a923493610a7960405190565b630d64d59360e21b602082015295869360248501610849565b6020820181038252038361035a565b602082019151925af1610ab26103c9565b506103e8565b81811015610b0f5790610b0682610b00610af98b610ada88978a8c9b9a6101ab565b9290610af3610aeb610a0a8d610169565b94859261077b565b92610737565b528b610737565b506106ac565b90919293610a55565b610a5a565b81811015610b5957808c610b4d610b32610893610b53958989610157565b610b44610b3e8a610169565b85610672565b921a918b6106bb565b536106ac565b84610a22565b610a27565b610b7d90883d8a11610b83575b610b75818361035a565b810190610466565b386109f3565b503d610b6b565b6105f9565b610ba5908a3d8c11610b8357610b75818361035a565b3861096c565b50928695506100ab96949192610a92610aa1927f0000000000000000000000000000000000000000000000000000000000000000963495610beb60405190565b630d64d59360e21b60208201529788956024870161030e565b906100ab94939291610124565b6101059081565b6101059054610c11565b6101056002610169565b90610105610105610c3c92610169565b9055565b610c4a6000610c18565b610c52610c22565b908190610c5e565b9190565b14610c6e576100ab906000610c2c565b604051633ee5aeb560e01b8152600490fd5b6101056001610169565b6100ab610c95610c80565b6000610c2c565b610ca7929190610cb7565b91565b9190820180921161067f57565b92909160051b830135830192610ce5610c5a610105610cde60208835980196858803955090565b9387610caa565b10610cec57565b604051633b99b53d60e01b8152600490fdfea26474726f6e58221220e7bc927fd41ec29be53e9b3ec73285d17718d2775ee01529839fb76c285652bb64736f6c63430008140033",
  "linkReferences": {},
  "deployedLinkReferences": {}
}