{
  "_format": "hh-sol-artifact-1",
  "contractName": "TomoSwapRouter",
  "sourceName": "src/TomoSwapRouter.sol",
  "abi": [
    {
      "inputs": [
        {
          "components": [
            {
              "internalType": "address",
              "name": "permit2",
              "type": "address"
            },
            {
              "internalType": "address",
              "name": "weth9",
              "type": "address"
            },
            {
              "internalType": "address",
              "name": "uniV2Factory",
              "type": "address"
            },
            {
              "internalType": "address",
              "name": "uniV3Factory",
              "type": "address"
            },
            {
              "internalType": "bytes32",
              "name": "uniPairInitCodeHash",
              "type": "bytes32"
            },
            {
              "internalType": "bytes32",
              "name": "uniPoolInitCodeHash",
              "type": "bytes32"
            },
            {
              "internalType": "address",
              "name": "cakeV2Factory",
              "type": "address"
            },
            {
              "internalType": "address",
              "name": "cakeV3Factory",
              "type": "address"
            },
            {
              "internalType": "address",
              "name": "cakeV3Deployer",
              "type": "address"
            },
            {
              "internalType": "bytes32",
              "name": "cakePairInitCodeHash",
              "type": "bytes32"
            },
            {
              "internalType": "bytes32",
              "name": "cakePoolInitCodeHash",
              "type": "bytes32"
            },
            {
              "internalType": "address",
              "name": "cakeStableFactory",
              "type": "address"
            },
            {
              "internalType": "address",
              "name": "cakeStableInfo",
              "type": "address"
            },
            {
              "internalType": "address",
              "name": "sushiV2Factory",
              "type": "address"
            },
            {
              "internalType": "address",
              "name": "sushiV3Factory",
              "type": "address"
            },
            {
              "internalType": "bytes32",
              "name": "sushiPairInitCodeHash",
              "type": "bytes32"
            },
            {
              "internalType": "bytes32",
              "name": "sushiPoolInitCodeHash",
              "type": "bytes32"
            }
          ],
          "internalType": "struct RouterParameters",
          "name": "params",
          "type": "tuple"
        }
      ],
      "stateMutability": "nonpayable",
      "type": "constructor"
    },
    {
      "inputs": [],
      "name": "BalanceTooLow",
      "type": "error"
    },
    {
      "inputs": [],
      "name": "CakeStableInvalidPath",
      "type": "error"
    },
    {
      "inputs": [],
      "name": "CakeStableTooLittleReceived",
      "type": "error"
    },
    {
      "inputs": [],
      "name": "CakeStableTooMuchRequested",
      "type": "error"
    },
    {
      "inputs": [],
      "name": "CakeV2InvalidPath",
      "type": "error"
    },
    {
      "inputs": [],
      "name": "CakeV2TooLittleReceived",
      "type": "error"
    },
    {
      "inputs": [],
      "name": "CakeV2TooMuchRequested",
      "type": "error"
    },
    {
      "inputs": [],
      "name": "CakeV3InvalidAmountOut",
      "type": "error"
    },
    {
      "inputs": [],
      "name": "CakeV3InvalidCaller",
      "type": "error"
    },
    {
      "inputs": [],
      "name": "CakeV3InvalidSwap",
      "type": "error"
    },
    {
      "inputs": [],
      "name": "CakeV3TooLittleReceived",
      "type": "error"
    },
    {
      "inputs": [],
      "name": "CakeV3TooMuchRequested",
      "type": "error"
    },
    {
      "inputs": [],
      "name": "ContractLocked",
      "type": "error"
    },
    {
      "inputs": [],
      "name": "ETHNotAccepted",
      "type": "error"
    },
    {
      "inputs": [],
      "name": "EnforcedPause",
      "type": "error"
    },
    {
      "inputs": [
        {
          "internalType": "uint256",
          "name": "commandIndex",
          "type": "uint256"
        },
        {
          "internalType": "bytes",
          "name": "message",
          "type": "bytes"
        }
      ],
      "name": "ExecutionFailed",
      "type": "error"
    },
    {
      "inputs": [],
      "name": "ExpectedPause",
      "type": "error"
    },
    {
      "inputs": [],
      "name": "FromAddressIsNotOwner",
      "type": "error"
    },
    {
      "inputs": [],
      "name": "InsufficientETH",
      "type": "error"
    },
    {
      "inputs": [],
      "name": "InsufficientToken",
      "type": "error"
    },
    {
      "inputs": [],
      "name": "InvalidBips",
      "type": "error"
    },
    {
      "inputs": [
        {
          "internalType": "uint256",
          "name": "commandType",
          "type": "uint256"
        }
      ],
      "name": "InvalidCommandType",
      "type": "error"
    },
    {
      "inputs": [],
      "name": "InvalidPath",
      "type": "error"
    },
    {
      "inputs": [],
      "name": "InvalidPath",
      "type": "error"
    },
    {
      "inputs": [],
      "name": "InvalidPoolAddress",
      "type": "error"
    },
    {
      "inputs": [],
      "name": "InvalidPoolLength",
      "type": "error"
    },
    {
      "inputs": [],
      "name": "InvalidReserves",
      "type": "error"
    },
    {
      "inputs": [],
      "name": "InvalidReserves",
      "type": "error"
    },
    {
      "inputs": [],
      "name": "InvalidSpender",
      "type": "error"
    },
    {
      "inputs": [],
      "name": "InvalidSwapId",
      "type": "error"
    },
    {
      "inputs": [],
      "name": "LengthMismatch",
      "type": "error"
    },
    {
      "inputs": [
        {
          "internalType": "address",
          "name": "owner",
          "type": "address"
        }
      ],
      "name": "OwnableInvalidOwner",
      "type": "error"
    },
    {
      "inputs": [
        {
          "internalType": "address",
          "name": "account",
          "type": "address"
        }
      ],
      "name": "OwnableUnauthorizedAccount",
      "type": "error"
    },
    {
      "inputs": [],
      "name": "SliceOutOfBounds",
      "type": "error"
    },
    {
      "inputs": [],
      "name": "SushiV2InvalidPath",
      "type": "error"
    },
    {
      "inputs": [],
      "name": "SushiV2TooLittleReceived",
      "type": "error"
    },
    {
      "inputs": [],
      "name": "SushiV2TooMuchRequested",
      "type": "error"
    },
    {
      "inputs": [],
      "name": "SushiV3InvalidAmountOut",
      "type": "error"
    },
    {
      "inputs": [],
      "name": "SushiV3InvalidCaller",
      "type": "error"
    },
    {
      "inputs": [],
      "name": "SushiV3TooLittleReceived",
      "type": "error"
    },
    {
      "inputs": [],
      "name": "SushiV3TooMuchRequested",
      "type": "error"
    },
    {
      "inputs": [],
      "name": "TransactionDeadlinePassed",
      "type": "error"
    },
    {
      "inputs": [],
      "name": "UniSushiV3InvalidSwap",
      "type": "error"
    },
    {
      "inputs": [],
      "name": "UniV2InvalidPath",
      "type": "error"
    },
    {
      "inputs": [],
      "name": "UniV2TooLittleReceived",
      "type": "error"
    },
    {
      "inputs": [],
      "name": "UniV2TooMuchRequested",
      "type": "error"
    },
    {
      "inputs": [],
      "name": "UniV3InvalidAmountOut",
      "type": "error"
    },
    {
      "inputs": [],
      "name": "UniV3InvalidCaller",
      "type": "error"
    },
    {
      "inputs": [],
      "name": "UniV3TooLittleReceived",
      "type": "error"
    },
    {
      "inputs": [],
      "name": "UniV3TooMuchRequested",
      "type": "error"
    },
    {
      "inputs": [],
      "name": "UnsafeCast",
      "type": "error"
    },
    {
      "anonymous": false,
      "inputs": [
        {
          "indexed": true,
          "internalType": "address",
          "name": "previousOwner",
          "type": "address"
        },
        {
          "indexed": true,
          "internalType": "address",
          "name": "newOwner",
          "type": "address"
        }
      ],
      "name": "OwnershipTransferred",
      "type": "event"
    },
    {
      "anonymous": false,
      "inputs": [
        {
          "indexed": false,
          "internalType": "address",
          "name": "account",
          "type": "address"
        }
      ],
      "name": "Paused",
      "type": "event"
    },
    {
      "anonymous": false,
      "inputs": [
        {
          "indexed": true,
          "internalType": "address",
          "name": "factory",
          "type": "address"
        },
        {
          "indexed": true,
          "internalType": "address",
          "name": "info",
          "type": "address"
        }
      ],
      "name": "SetCakeStableSwap",
      "type": "event"
    },
    {
      "anonymous": false,
      "inputs": [
        {
          "indexed": false,
          "internalType": "address",
          "name": "account",
          "type": "address"
        }
      ],
      "name": "Unpaused",
      "type": "event"
    },
    {
      "inputs": [],
      "name": "cakeStableSwapFactory",
      "outputs": [
        {
          "internalType": "address",
          "name": "",
          "type": "address"
        }
      ],
      "stateMutability": "view",
      "type": "function"
    },
    {
      "inputs": [],
      "name": "cakeStableSwapInfo",
      "outputs": [
        {
          "internalType": "address",
          "name": "",
          "type": "address"
        }
      ],
      "stateMutability": "view",
      "type": "function"
    },
    {
      "inputs": [
        {
          "internalType": "bytes",
          "name": "commands",
          "type": "bytes"
        },
        {
          "internalType": "bytes[]",
          "name": "inputs",
          "type": "bytes[]"
        }
      ],
      "name": "execute",
      "outputs": [],
      "stateMutability": "payable",
      "type": "function"
    },
    {
      "inputs": [
        {
          "internalType": "bytes",
          "name": "commands",
          "type": "bytes"
        },
        {
          "internalType": "bytes[]",
          "name": "inputs",
          "type": "bytes[]"
        },
        {
          "internalType": "uint256",
          "name": "deadline",
          "type": "uint256"
        }
      ],
      "name": "execute",
      "outputs": [],
      "stateMutability": "payable",
      "type": "function"
    },
    {
      "inputs": [],
      "name": "owner",
      "outputs": [
        {
          "internalType": "address",
          "name": "",
          "type": "address"
        }
      ],
      "stateMutability": "view",
      "type": "function"
    },
    {
      "inputs": [
        {
          "internalType": "int256",
          "name": "amount0Delta",
          "type": "int256"
        },
        {
          "internalType": "int256",
          "name": "amount1Delta",
          "type": "int256"
        },
        {
          "internalType": "bytes",
          "name": "data",
          "type": "bytes"
        }
      ],
      "name": "pancakeV3SwapCallback",
      "outputs": [],
      "stateMutability": "nonpayable",
      "type": "function"
    },
    {
      "inputs": [],
      "name": "pause",
      "outputs": [],
      "stateMutability": "nonpayable",
      "type": "function"
    },
    {
      "inputs": [],
      "name": "paused",
      "outputs": [
        {
          "internalType": "bool",
          "name": "",
          "type": "bool"
        }
      ],
      "stateMutability": "view",
      "type": "function"
    },
    {
      "inputs": [],
      "name": "renounceOwnership",
      "outputs": [],
      "stateMutability": "nonpayable",
      "type": "function"
    },
    {
      "inputs": [
        {
          "internalType": "address",
          "name": "_factory",
          "type": "address"
        },
        {
          "internalType": "address",
          "name": "_info",
          "type": "address"
        }
      ],
      "name": "setCakeStableSwap",
      "outputs": [],
      "stateMutability": "nonpayable",
      "type": "function"
    },
    {
      "inputs": [
        {
          "internalType": "address",
          "name": "newOwner",
          "type": "address"
        }
      ],
      "name": "transferOwnership",
      "outputs": [],
      "stateMutability": "nonpayable",
      "type": "function"
    },
    {
      "inputs": [
        {
          "internalType": "int256",
          "name": "amount0Delta",
          "type": "int256"
        },
        {
          "internalType": "int256",
          "name": "amount1Delta",
          "type": "int256"
        },
        {
          "internalType": "bytes",
          "name": "data",
          "type": "bytes"
        }
      ],
      "name": "uniswapV3SwapCallback",
      "outputs": [],
      "stateMutability": "nonpayable",
      "type": "function"
    },
    {
      "inputs": [],
      "name": "unpause",
      "outputs": [],
      "stateMutability": "nonpayable",
      "type": "function"
    },
    {
      "stateMutability": "payable",
      "type": "receive"
    }
  ],
  "bytecode": "0x6102606040523462000130576200001f6200001962000367565b620003ae565b6040516157916200093e823960805181818161496d01528181614bb80152614cb9015260a05181818161499201528181614bda0152614cdb015260c05181615449015260e051816154830152610100518181816145230152818161477301526148cc0152610120518181816145480152818161479501526148ee015261014051816156ef0152610160518161572901526101805181818161338c01528181613791015261392d01526101a0518181816133b1015281816137b3015261394e01526101c0518150506101e051816144d70152610200518161448f01526102205181818161224b015261237a015261024051818181611384015281816115d90152818161250801526126a4015261579190f35b600080fd5b634e487b7160e01b600052604160045260246000fd5b90601f01601f191681019081106001600160401b038211176200016d57604052565b62000135565b906200018a6200018260405190565b92836200014b565b565b6001600160a81b0381165b036200013057565b6001600160a01b031690565b90565b620001ab9150516200019f816200018c565b8062000197565b905051906200018a82620001c0565b91909161022081840312620001305762000349620001f661022062000173565b936000620002058285620001ae565b9086015260206200021982828601620001ae565b9086015260406200022d82828601620001ae565b9086015260606200024182828601620001ae565b9086015260806200025582828601620001c7565b9086015260a06200026982828601620001c7565b9086015260c06200027d82828601620001ae565b9086015260e06200029182828601620001ae565b90860152610100620002a682828601620001ae565b90860152610120620002bb82828601620001c7565b90860152610140620002d082828601620001c7565b90860152610160620002e582828601620001ae565b90860152610180620002fa82828601620001ae565b908601526101a06200030f82828601620001ae565b908601526101c06200032482828601620001ae565b908601526101e06200033982828601620001c7565b90860152610200809301620001c7565b90830152565b90610220828203126200013057620001ab91620001d6565b620001ab620060cf803803806200037e8162000173565b9283398101906200034f565b620001ab604062000173565b620001ab60a062000173565b620001ab608062000173565b6101608101516001600160a01b031690620003d46101808201516001600160a01b031690565b81516001600160a01b031660208301516001600160a01b0316620003f76200038a565b6001600160a01b0390921682526001600160a01b0316602082015260c08301516001600160a01b0316906200043660e08501516001600160a01b031690565b6101008501516001600160a01b0316610120860151906200045961014088015190565b926200046462000396565b6001600160a01b0390961686526001600160a01b031660208601526001600160a01b03166040850152606084015260808301526101a08401516001600160a01b031692620004bd6101c08601516001600160a01b031690565b6101e086015161020087015191620004d4620003a2565b6001600160a01b0390971687526001600160a01b03166020870152604086015260608501526200050e60408601516001600160a01b031690565b946200052460608201516001600160a01b031690565b9062000531608082015190565b60a0909101519162000542620003a2565b6001600160a01b0390981688526001600160a01b03166020880152604087015260608601526200018a95620005a6565b9060ff60a01b9060a01b5b9181191691161790565b906200059a620001ab620005a292151590565b825462000572565b9055565b90620005b69594939291620005c4565b6200018a6000600562000587565b906200018a959493929162000653565b6200019f620001ab620001ab9290565b620001ab90620005d4565b620001ab6001620005e4565b906001600160a01b03906200057d565b620001ab906200019f906001600160a01b031682565b620001ab906200060b565b620001ab9062000621565b906200064b620001ab620005a2926200062c565b8254620005fb565b9062000663959493929162000679565b6200018a62000671620005ef565b600562000637565b91946200069291946200069a946200018a9733620006a2565b600362000637565b600462000637565b9391620006b0939162000719565b620006bc6000620005e4565b6001600160a01b0381166001600160a01b03831614620006e257506200018a90620008db565b6200071590620006f160405190565b631e4fbdf760e01b8152918291600483016001600160a01b03909116815260200190565b0390fd5b906200018a9392916200075e565b90600019906200057d565b620001ab620001ab620001ab9290565b9062000756620001ab620005a29262000732565b825462000727565b906200076c9392916200077b565b6200018a600019600162000742565b6200018a93849362000792939192909190620007a1565b6200018a600019600062000742565b6200018a938493849384938493620007fa93620007e29360009392620007c992909162000800565b620007e8620007e260208301516001600160a01b031690565b6200062c565b6102205201516001600160a01b031690565b61024052565b62000812620008539360409362000859565b80516001600160a01b03166101805260608101516101a05260208101516001600160a01b03166101c05260808101516101e05201516001600160a01b031690565b61020052565b6060906200088f620008be9380516001600160a01b03908116608052604082015160a05260208201511660c0526060015160e052565b80516001600160a01b03166101005260408101516101205260208101516001600160a01b031661014052015190565b61016052565b620001ab906200019f565b620001ab9054620008c4565b620008e76002620008cf565b90620008f581600262000637565b6200092c620009257f8be0079c531659141344cd1fd0a4f28419497f9722a3daafe3b4186f6b6457e0936200062c565b916200062c565b916200093760405190565b600090a356fe6080604052600436101561001b575b361561001957600080fd5b005b60003560e01c8063110e8543146100eb5780631a957344146100e657806323a69e75146100e157806324856bc3146100dc5780633593564c146100d75780633f4ba83a146100d25780635c975abb146100cd578063715018a6146100c85780638456cb59146100c357806388bd5a66146100be5780638da5cb5b146100b9578063f2fde38b146100b45763fa461e330361000e57610462565b61044a565b61041b565b610400565b6103dc565b6103c4565b610397565b61037f565b610368565b6102fb565b610268565b6101c3565b61014e565b60009103126100fb57565b600080fd5b610115916008021c5b6001600160a01b031690565b90565b906101159154610100565b61011560006003610118565b61013890610109565b9052565b60208101929161014c919061012f565b565b346100fb5761015e3660046100f0565b610176610169610123565b6040515b9182918261013c565b0390f35b6001600160a81b0381165b036100fb57565b61011591503561019b8161017a565b610109565b91906040838203126100fb57610115906101ba818561018c565b9360200161018c565b346100fb576101dc6101d63660046101a0565b906127e2565b604051005b80610185565b9050359061014c826101e1565b909182601f830112156100fb578135916001600160401b0383116100fb5760200192600183028401116100fb57565b916060838303126100fb5761023882846101e7565b9261024683602083016101e7565b9260408201356001600160401b0381116100fb5761026492016101f4565b9091565b346100fb576101dc61027b366004610223565b92919091613da1565b909182601f830112156100fb578135916001600160401b0383116100fb5760200192602083028401116100fb57565b90916040828403126100fb5781356001600160401b0381116100fb57836102db9184016101f4565b92909360208201356001600160401b0381116100fb576102649201610284565b6101dc6103093660046102b3565b929190916108ed565b6060818303126100fb5780356001600160401b0381116100fb57826103389183016101f4565b92909360208301356001600160401b0381116100fb5761035d83610115928601610284565b9390946040016101e7565b6101dc610376366004610312565b93929092610693565b346100fb5761038f3660046100f0565b6101dc610a2d565b346100fb576103a73660046100f0565b6101766103b2610650565b60405191829182901515815260200190565b346100fb576103d43660046100f0565b6101dc6104d3565b346100fb576103ec3660046100f0565b6101dc610989565b61011560006004610118565b346100fb576104103660046100f0565b6101766101696103f4565b346100fb5761042b3660046100f0565b610176610169610491565b906020828203126100fb576101159161018c565b346100fb576101dc61045d366004610436565b610580565b346100fb576101dc610475366004610223565b92919091614efc565b61011590610109565b610115905461047e565b6101156002610487565b6104a36104db565b61014c6104c1565b6101096101156101159290565b610115906104ab565b61014c6104ce60006104b8565b6105df565b61014c61049b565b6104e3610491565b33906104f76104f183610109565b91610109565b036104ff5750565b6105229061050c60405190565b63118cdaa760e01b81529182916004830161013c565b0390fd5b61014c906105326104db565b61053c60006104b8565b61054581610109565b61054e83610109565b1461055d575061014c906105df565b6105229061056a60405190565b631e4fbdf760e01b81529182916004830161013c565b61014c90610526565b906001600160a01b03905b9181191691161790565b61011590610109906001600160a01b031682565b6101159061059e565b610115906105b2565b906105d46101156105db926105bb565b8254610589565b9055565b6105e96002610487565b906105f58160026105c4565b6106286106227f8be0079c531659141344cd1fd0a4f28419497f9722a3daafe3b4186f6b6457e0936105bb565b916105bb565b9161063260405190565b600090a3565b6101159060a01c5b60ff1690565b6101159054610638565b6101156005610646565b939291908342610669565b9190565b116106775761014c94610689565b604051632dfb7c8b60e11b8152600490fd5b61014c94506108ed565b9061014c9493929161065a565b61011560016104b8565b9291909133916106bc61019b306105bb565b6106c584610109565b1461071f576106d46005610487565b936106dd6106a0565b946106ea6104f187610109565b0361070d5761014c956107016107069560056105c4565b610727565b60056105c4565b6040516337affdbf60e11b8152600490fd5b91509161014c935b9061014c9392916107366108f9565b61082e565b6101156101156101159290565b634e487b7160e01b600052603260045260246000fd5b919081101561076b570190565b610748565b903590601e1936829003018212156100fb57018035906001600160401b0382116100fb57602001913682900383136100fb57565b9082101561076b5760206102649202810190610770565b60005b8381106107ce5750506000910152565b81810151838201526020016107be565b6107ff610808602093610812936107f3815190565b80835293849260200190565b958691016107bb565b601f01601f191690565b0190565b908152604060208201819052610115929101906107de565b9293928193858590036108d857610845600061073b565b858110156108cf5761088761086c61085e83878761075e565b356001600160f81b03191690565b61088161087a848b8a6107a4565b90836111db565b92901590565b90816108bf575b5061089c5750600101610845565b906105226108a960405190565b632c4029e960e01b815292839260048401610816565b6108c99150610943565b3861088e565b50945050505050565b6040516001621398b960e31b03198152600490fd5b9061014c9392916106aa565b610901610650565b61090757565b60405163d93c066560e01b8152600490fd5b61092c6109266101159290565b60f81b90565b6001600160f81b03191690565b6101156080610919565b61094b610939565b166109676109596000610919565b916001600160f81b03191690565b1490565b6109736104db565b61014c61097e6108f9565b61014c61014c610a07565b61014c61096b565b6109996108f9565b61014c6109c7565b9060ff60a01b9060a01b610594565b906109c06101156105db92151590565b82546109a1565b6109d3600160056109b0565b33610a027f62e78cea01bee320cd4e420270b5ea74000d11b0c9f74754ebdbfc544b05a2589161016d60405190565b0390a1565b61014c610991565b610a176104db565b61014c610a22610a35565b61014c61014c610aa2565b61014c610a0f565b610a44610a40610650565b1590565b610a4a57565b604051638dfc202b60e01b8152600490fd5b610a64610a35565b61014c610a73600060056109b0565b33610a027f5db9ee0a495bf2e6ff9c91a7834c1ba4fdd244a5e8aa4e537bd38aeae4b073aa9161016d60405190565b61014c610a5c565b610115603f610919565b6106406101156101159260ff1690565b6101159060f81c610ab4565b6101156101156101159260ff1690565b610115602061073b565b610115601061073b565b610115601861073b565b610115601961073b565b610115601a61073b565b610115601b61073b565b610115601c61073b565b610115601d61073b565b610115601161073b565b610115601261073b565b610115601361073b565b610115600861073b565b610115600961073b565b610115600a61073b565b610115600b61073b565b610115600c61073b565b610115600d61073b565b610115600e61073b565b634e487b7160e01b600052604160045260246000fd5b90601f01601f191681019081106001600160401b03821117610bcb57604052565b610b94565b9050519061014c826101e1565b906020828203126100fb5761011591610bd0565b6040513d6000823e3d90fd5b9061014c610c0a60405190565b9283610baa565b6001600160401b038111610bcb5760208091020190565b6001600160a01b038116610185565b9050359061014c82610c28565b9190916080818403126100fb57610c9d610c5e6080610bfd565b936000610c6b828561018c565b908601526020610c7d8282860161018c565b908601526040610c8f82828601610c37565b90860152606080930161018c565b90830152565b90929192610cb8610cb382610c11565b610bfd565b9381855260806020860192028301928184116100fb57915b838310610cdd5750505050565b6020608091610cec8486610c44565b815201920191610cd0565b9080601f830112156100fb5781602061011593359101610ca3565b906020828203126100fb5781356001600160401b0381116100fb576101159201610cf7565b5061011590602081019061018c565b50610115906020810190610c37565b65ffffffffffff8116610185565b9050359061014c82610d55565b50610115906020810190610d63565b906060610de861014c93610da0610d996000830183610d37565b859061012f565b610dc0610db06020830183610d46565b6001600160a01b03166020860152565b610ddf610dd06040830183610d70565b65ffffffffffff166040860152565b82810190610d70565b65ffffffffffff16910152565b506101159060208101906101e7565b61014c919060a090610e3d90610e1a8482610d7f565b610e34610e2a6080830183610d37565b608086019061012f565b82810190610df5565b910152565b90826000939282370152565b919061080881610e65816108129560209181520190565b8095610e42565b610e946101159593949294610e8a610100840196600085019061012f565b6020830190610e04565b60e0818503910152610e4e565b610115600061073b565b610115600161073b565b610115600261073b565b610115600361073b565b610115600461073b565b610115600561073b565b610115600661073b565b6101159081906001600160a01b031681565b9190916080818403126100fb57610c9d610f136080610bfd565b936000610f20828561018c565b908601526020610f3282828601610c37565b908601526040610f4482828601610d63565b908601526060809301610d63565b90929192610f62610cb382610c11565b9381855260806020860192028301928184116100fb57915b838310610f875750505050565b6020608091610f968486610ef9565b815201920191610f7a565b9080601f830112156100fb5781602061011593359101610f52565b9190916060818403126100fb57610fd36060610bfd565b928135906001600160401b0382116100fb57610ff481610c9d938501610fa1565b855260206110048285830161018c565b9086015260408093016101e7565b6001600160401b038111610bcb57602090601f01601f19160190565b9092919261103e610cb382611012565b938185526020850190828401116100fb5761014c92610e42565b9080601f830112156100fb578160206101159335910161102e565b9190916040818403126100fb5780356001600160401b0381116100fb578361109c918301610fbc565b9260208201356001600160401b0381116100fb576101159201611058565b9060608061014c936110d46000820151600086019061012f565b6020818101516001600160a01b03169085015260408181015165ffffffffffff1690850152015165ffffffffffff16910152565b90610812816080936110ba565b9061113561112e611124845190565b8084529260200190565b9260200190565b9060005b8181106111465750505090565b9091926111606111596001928651611108565b9460200190565b929101611139565b90610115906040806111896060840160008701518582036000870152611115565b9461119c6020820151602086019061012f565b0151910152565b92906111cd9061011595936111c06060870192600088019061012f565b8582036020870152611168565b926040818503910152610e4e565b909290916000906111fe6111f96060956111f3610aaa565b16610ac4565b610ad0565b94600192839661120f610115610ae0565b811015611bbe57611221610115610aea565b8110156117cb57611233610115610b4e565b8110156114eb57611245610115610ea1565b81036112a6575061014c93505080359160208201359161127a604082013591608081013593611274600361073b565b91611c16565b9390921561129a5761129561128f6005610487565b95611bcf565b6151d3565b61129561128f306105bb565b6112b1610115610eab565b8103611306575061014c9350508035916020820135916112e0604082013591608081013593611274600361073b565b939092156112fa576112f561128f6005610487565b6152cb565b6112f561128f306105bb565b9050611316610115939293610eb5565b810361135257505061014c915061132b600090565b508035604060208301359201359161134c6113466005610487565b91611bcf565b91612501565b61135d610115610ebf565b81036114235750908161127461137861137f94840184611073565b509461073b565b6113a87f00000000000000000000000000000000000000000000000000000000000000006105bb565b632a2d80d1926113b86005610487565b92823b156100fb576000946113ed86926113e2946113d560405190565b998a988997889660e01b90565b8652600486016111a3565b03925af1801561141e576113fe5750565b61014c9060005b61140f8183610baa565b8101906100f0565b503d611405565b610bf1565b91925050611432610115610ec9565b8103611462575061014c9080359061145c6114566040602084013593013592611bcf565b91610ee7565b91612132565b61146d610115610ed3565b8103611493575061014c90803561148d6040602084013593013592611bcf565b90611cb3565b61149e610115610edd565b81036114c4575061014c9080356114be6040602084013593013592611bcf565b9061202b565b610522906114d160405190565b636bb50f4f60e11b81529182916004830190815260200190565b93506114f8610115610b4e565b840361154c5761014c935050803591602082013591611526604082013591608081013593611274600361073b565b939092156115405761153b61128f6005610487565b614953565b61153b61128f306105bb565b611557610115610b58565b84036115ab5761014c935050803591602082013591611585604082013591608081013593611274600361073b565b9390921561159f5761159a61128f6005610487565b614cab565b61159a61128f306105bb565b50916115b8610115610b62565b810361163557506115d4906115cd600661073b565b9083611c16565b6115fd7f00000000000000000000000000000000000000000000000000000000000000006105bb565b632b67b5709261160d6005610487565b92823b156100fb576000946113ed869261162a946113d560405190565b865260048601610e6c565b611640610115610b6c565b810361166a57505061014c90611654600090565b506116656020823592013591611bcf565b612210565b611675610115610b76565b810361169f57505061014c90611689600090565b5061169a6020823592013591611bcf565b612374565b6116aa610115610b80565b81036116d15750816116c19161014c930190610d12565b6116cb6005610487565b9061262f565b91929450506116e1610115610b8a565b81036114c45750611733906020813561170a611705604084860135950135946105bb565b6105bb565b6117286370a0823161171b60405190565b9687948593849360e01b90565b83526004830161013c565b03915afa91821561141e57600092611793575b50905b1015918261014c5790506351940b3960e11b61011561176760405190565b8092611787602083019182610812816004936001600160e01b0319169052565b90810382520382610baa565b6117499192506117bc6106659160203d81116117c4575b6117b48183610baa565b810190610bdd565b929150611746565b503d6117aa565b90919293506117db610115610af4565b811015611962576117ed610115610aea565b8103611842575061014c928235926020810135925060808101359160408201359161181c91611274600361073b565b939092156118365761183161128f6005610487565b614509565b61183161128f306105bb565b61184d610115610b30565b81036118a2575061014c928235926020810135925060808101359160408201359161187c91611274600361073b565b939092156118965761189161128f6005610487565b6148be565b61189161128f306105bb565b6118ad610115610b3a565b8103611902575061014c92823592602081013592506080810135916040820135916118dc91611274600361073b565b939092156118f6576118f161128f6005610487565b6154b5565b6118f161128f306105bb565b61190d610115610b44565b81036114c4575061014c928235926020810135925060808101359160408201359161193c91611274600361073b565b939092156119565761195161128f6005610487565b6155ad565b61195161128f306105bb565b61196d610115610af4565b81036119c2575061014c928235926020810135925060808101359160408201359161199c91611274600361073b565b939092156119b6576119b161128f6005610487565b613372565b6119b161128f306105bb565b6119cd610115610afe565b8103611a22575061014c92823592602081013592506080810135916040820135916119fc91611274600361073b565b93909215611a1657611a1161128f6005610487565b61391d565b611a1161128f306105bb565b611a2d610115610b08565b8103611a82575061014c9282359260208101359250608081013591604082013591611a5c91611274600361073b565b93909215611a7657611a7161128f6005610487565b613ff3565b611a7161128f306105bb565b611a8d610115610b12565b8103611ae2575061014c9282359260208101359250608081013591604082013591611abc91611274600361073b565b93909215611ad657611ad161128f6005610487565b614162565b611ad161128f306105bb565b611aed610115610b1c565b8103611b5d575061014c928235926020810135925060a0810135916040820135611b31611b24611b1d600361073b565b8486611c16565b949093611274600461073b565b95909415611b5157611b4c611b466005610487565b97611bcf565b612813565b611b4c611b46306105bb565b611b68610115610b26565b81036114c4575061014c928235926020810135925060a0810135916040820135611b98611b24611b1d600361073b565b95909415611bb257611bad611b466005610487565b61309b565b611bad611b46306105bb565b5050505050565b61011560026104b8565b611bda61019b6106a0565b611be382610109565b03611bf357506101156005610487565b611bfe61019b611bc5565b611c0782610109565b036101155750610115306105bb565b611c21929190611c55565b91565b634e487b7160e01b600052601160045260246000fd5b9190611c45565b9290565b8201809211611c5057565b611c24565b92909160051b830135830192611c83610665610115611c7c60208835980196858803955090565b9387611c3a565b10611c8a57565b604051633b99b53d60e01b8152600490fd5b61011560006104b8565b610115600160ff1b61073b565b9190611cc061019b611c9c565b611cc984610109565b03611cd85761014c9250611fb6565b611ce3610115611ca6565b8214611cf3575b61014c92611e52565b8291506020611d07611705611d30956105bb565b6370a0823190611728611d19306105bb565b92611d2360405190565b9788948593849360e01b90565b03915afa801561141e5761014c93600091611d4f575b50919250611cea565b611d67915060203d81116117c4576117b48183610baa565b38611d46565b611d80611d7a6101159290565b60e01b90565b6001600160e01b03191690565b91602061014c929493611da86040820196600083019061012f565b0152565b90611db9610cb383611012565b918252565b3d15611dd857611dcd3d611dac565b903d6000602084013e565b606090565b801515610185565b9050519061014c82611ddd565b906020828203126100fb5761011591611de5565b15611e0d57565b60405162461bcd60e51b815260206004820152601f60248201527f5472616e7366657248656c7065723a205452414e534645525f4641494c4544006044820152606490fd5b916004611e96600093611e878594611e6d63a9059cbb611d6d565b92611e7760405190565b9586946020860190815201611d8d565b60208201810382520382610baa565b80519060200182855af1611ea8611dbe565b91611ec96104f173a614f803b6fd780986a42c78ec9c7f77e6ded13c610109565b1480611f2f575b611f2b5761014c9181611ee4575b50611e06565b9050611eee815190565b611efb610665600061073b565b14908115611f0b575b5038611ede565b611f2591506020611f1a825190565b818301019101611df2565b38611f04565b5050565b5080611ed0565b369037565b9061014c611f51611f4b84611dac565b93611012565b601f190160208401611f36565b15611f6557565b60405162461bcd60e51b815260206004820152602360248201527f5472616e7366657248656c7065723a204554485f5452414e534645525f46414960448201526213115160ea1b6064820152608490fd5b61014c916000918291611fd0611fcb8461073b565b611f3b565b90602082019151925af1611fe2611dbe565b50611f5e565b61011561271061073b565b81810292918115918404141715611c5057565b634e487b7160e01b600052601260045260246000fd5b8115612026570490565b612006565b612035600061073b565b8314801561211f575b61210d5761204d61019b611c9c565b61205682610109565b03612089575061208361207561014c9361206f306105bb565b31611ff3565b61207d611fe8565b9061201c565b90611fb6565b906120c4602061209b611705856105bb565b6370a08231906117286120ad306105bb565b926120b760405190565b9586948593849360e01b90565b03915afa90811561141e5761014c946120e992612075926000916120ef575b50611ff3565b91611e52565b612107915060203d81116117c4576117b48183610baa565b386120e3565b604051636f5500f360e11b8152600490fd5b5061212b610115611fe8565b831161203e565b90919061214061019b611c9c565b61214982610109565b03612196575061216061215b306105bb565b319190565b811061218357612170600061073b565b811161217a575050565b61014c91611fb6565b6040515b631a84bc4160e21b8152600490fd5b916121a9916020611d07611705866105bb565b03915afa92831561141e576000936121ec575b505b82106121da576121ce600061073b565b8211611cea575b505050565b604051630ceb95c760e31b8152600490fd5b6121be9193506122099060203d81116117c4576117b48183610baa565b92906121bc565b9061221c610115611ca6565b8103612354575061222c306105bb565b31905b60009061223b8261073b565b831161224657505050565b61226f7f00000000000000000000000000000000000000000000000000000000000000006105bb565b63d0e30db0813b156100fb5761228e61228760405190565b9160e01b90565b8152838160048188865af1801561141e57612338575b506122b161019b306105bb565b6122ba83610109565b036122c6575b50505050565b6122ea60209363a9059cbb6122f56122dd60405190565b9788968795869460e01b90565b845260048401611d8d565b03925af1801561141e5761230c575b8080806122c0565b61232c9060203d8111612331575b6123248183610baa565b810190611df2565b612304565b503d61231a565b61234e90843d86116114175761140f8183610baa565b386122a4565b90612365612361306105bb565b3190565b82111561222f57604051612187565b9061239e7f00000000000000000000000000000000000000000000000000000000000000006105bb565b6370a08231916123ad306105bb565b906123c16123ba60405190565b9460e01b90565b8452602084806123d4856004830161013c565b0381865afa93841561141e5760009461249a575b505b83106121835760006123fb8161073b565b8411612408575050505050565b632e1a7d4d92803b156100fb5761242d93829161242460405190565b95869260e01b90565b825260048201879052602490829084905af192831561141e576124569361247d575b5050610109565b61245f83610109565b0361246d575b808080611bbe565b61247691611fb6565b3880612465565b8161249392903d106114175761140f8183610baa565b388061244f565b6123ea9194506124b79060203d81116117c4576117b48183610baa565b93906123e8565b6124fa61014c946124ea6060949897956124e0608086019a600087019061012f565b602085019061012f565b6001600160a01b03166040830152565b019061012f565b919261252c7f00000000000000000000000000000000000000000000000000000000000000006105bb565b906336c7851693823b156100fb576000946113ed869261254f946113d560405190565b8652600486016124be565b6000198114611c505760010190565b90612572825190565b81101561076b576020809102010190565b6101159051610109565b9060608061014c936125a76000820151600086019061012f565b6125b96020820151602086019061012f565b6040818101516001600160a01b031690850152015191019061012f565b906108128160809361258d565b906125f261112e611124845190565b9060005b8181106126035750505090565b90919261261661115960019286516125d6565b9291016125f6565b6020808252610115929101906125e3565b91612638835190565b926000916126458361073b565b855b811015612699576126638461265c8386612569565b5101612583565b61266f6104f187610109565b03612687576126806126479161255a565b9050612645565b60405163e700287760e01b8152600490fd5b5093509091506126c87f00000000000000000000000000000000000000000000000000000000000000006105bb565b90630d58b1db90823b156100fb57612701926126f68580946126e960405190565b9687958694859360e01b90565b83526004830161261e565b03925af1801561141e57612713575050565b8161014c92903d106114175761140f8183610baa565b9061014c916127366104db565b612742565b156100fb57565b9061277f6127869261277861275760006104b8565b61276081610109565b61276984610109565b141590816127c7575b5061273b565b60036105c4565b60046105c4565b6127906003610487565b61279a6004610487565b6106286106227f0f5a2f15ef2c4e176d10080410abce42c838a2a3ad247f0d3a6d2c090f3abce0936105bb565b6127d19150610109565b6127da85610109565b141538612772565b9061014c91612729565b919081101561076b576020020190565b356101158161017a565b91908203918211611c5057565b96936117059394612872969297939761282d610115610ea1565b8114158061294b575b612919575b505061286c6117056128676128606128508590565b61285a600161073b565b90612806565b84896127ec565b6127fc565b94612a11565b916370a0823191612882306105bb565b9061288f6123ba60405190565b8452602084806128a2856004830161013c565b0381885afa93841561141e576000946128f5575b505b83106128e3576128c790610109565b6128d082610109565b036128da57505050565b61014c92611cb3565b604051633c89334d60e21b8152600490fd5b6128b89194506129129060203d81116117c4576117b48183610baa565b93906128b6565b6129449161293461286761292d600061073b565b868b6127ec565b9061293e306105bb565b9161295f565b388061283b565b50612957610115611ca6565b811415612836565b92919061296e61019b306105bb565b61297782610109565b03612986575061014c92611cb3565b61299361014c9493612999565b92612501565b6129a96001600160a01b03610ee7565b81116129b857610115906104ab565b60405163c4bd89a960e01b8152600490fd5b35610115816101e1565b6101389061073b565b612a0a61014c94612a036060949897956129fc608086019a6000870152565b6020850152565b6040830152565b01906129d4565b9092908392612a2a600194612a258661073b565b900390565b918392839003612b9957600092855b612a47575b50505050505050565b80841015612b9457612ab684612ac1612aad88612a896128678d612a82612a7d8f9d612867612a7791858f6127ec565b9d61073b565b880190565b908a6127ec565b89612aa7612aa287612a9b6003610487565b958d6127ec565b6129ca565b92612d6d565b919490986105bb565b6020611d07826105bb565b03915afa92831561141e57600093612b64575b508161170584612ae79461170594612be8565b60009390635b41b908813b156100fb5785612b1891612b23828097612b0b60405190565b9e8f988997889660e01b90565b8652600486016129dd565b03925af191821561141e578896612b4193612b47575b505060010190565b93612a39565b81612b5d92903d106114175761140f8183610baa565b3880612b39565b8293509161170561170592612b89612ae79560203d81116117c4576117b48183610baa565b959450925050612ad4565b612a3e565b6040516367b526ef60e01b8152600490fd5b15612bb257565b60405162461bcd60e51b815260206004820152600e60248201526d1054141493d59157d1905253115160921b6044820152606490fd5b906000604460209261014c95612bfc600090565b5060405163095ea7b360e01b81526001600160a01b039092166004830152602482015282855af19081601f3d11600160005114161516612c3d575b50612bab565b3b153d1715905038612c37565b61011591505161019b8161017a565b91909160a0818403126100fb57610c9d612c7360a0610bfd565b936000612c808285612c4a565b908601526020612c9282828601612c4a565b908601526040612ca482828601612c4a565b908601526060612cb682828601612c4a565b908601526080809301612c4a565b9060a0828203126100fb5761011591612c59565b91602061014c9294936124fa6040820196600083019061012f565b9190916080818403126100fb57610c9d612d0d6080610bfd565b936000612d1a8285612c4a565b908601526020612d2c82828601612c4a565b908601526040612d3e82828601612c4a565b908601526060809301612c4a565b906080828203126100fb5761011591612cf3565b6106406101156101159290565b93929091906000908190600090600290612d868261073b565b8103612ea3575050505050608090612da4611705612dc195966105bb565b612db563400f7a1e61171b60405190565b83528760048401612cd8565b03915afa91821561141e57600092612e73575b50612de76104f161019b60208501612583565b03612e6657612df96111f96000612d60565b91612e29600084612e0c6106658361073b565b60009103612e5a5750612e226111f96001612d60565b9301612583565b905b612e3861019b60006104b8565b612e4183610109565b14612e4857565b60405163da6a56c360e01b8152600490fd5b6111f9612e2291612d60565b612df96111f96001612d60565b612e9591925060803d8111612e9c575b612e8d8183610baa565b810190612d4c565b9038612dd4565b503d612e83565b612eb961066560039a939599979498969a61073b565b14612ec8575b50505050612e2b565b612efa96949550612ee261170560a09299939495996105bb565b63923093cb90612ef160405190565b98899260e01b90565b82528180612f0c878d60048401612cd8565b03915afa95861561141e5760009661306b575b506020860196612f3161019b89612583565b612f3a82610109565b03612ffb575050612f5861019b612f51600061073b565b975b612583565b612f6182610109565b03612f8757505050612f7d6000612e228161073b565b01612583565b9038808080612ebf565b612f9661019b60408701612583565b612f9f82610109565b03612fbc57505050612f7d6000612fb6600161073b565b93612f77565b612fd06104f161019b606088969801612583565b14612fe2575b506000612f7d91612f77565b612f7d919350612ff360009161073b565b939150612fd6565b61300a61019b60408901612583565b61301382610109565b0361302a575050612f5861019b612f51600161073b565b61303f6104f161019b60608a9b959b01612583565b14613051575b61019b612f5891612583565b9550612f5861019b6130628461073b565b97915050613045565b61308d91965060a03d8111613094575b6130858183610baa565b810190612cc4565b9438612f1f565b503d61307b565b949293969190956130c48782868b896130b46003610487565b6130be6004610487565b906131e1565b936130e86130e46130e06000976130da8961073b565b90612569565b5190565b9390565b83116131635761311f61019b9361310e6128676131076131269961073b565b8d8b6127ec565b613117306105bb565b96879161295f565b8886612a11565b61312f83610109565b0361313a5750505050565b61315a93613155916128679161314f81612850565b916127ec565b611cb3565b388080806122c0565b60405163dc9f35db60e01b8152600490fd5b90611db9610cb383610c11565b9061014c611f5161319284613175565b93610c11565b8015611c50576000190190565b9095949261014c946131da611da8926131d36080966131cc60a088019c600089019061012f565b6020870152565b6040850152565b6060830152565b9496959194909280976131f4600261073b565b891061336057613230956132078a613182565b94613239869b6001998a9361322d6132276132218761073b565b85612806565b8b612569565b52565b61285a8361073b565b905b61324b575b505050505050505050565b60006132568161073b565b82111561335a57816132678a61073b565b6132719082612806565b91868c836132808684846127ec565b613289906127fc565b92613293926127ec565b61329c906127fc565b6132a78589896127ec565b6132b0906129ca565b906132bb928b612d6d565b6132c78d9792976105bb565b6132d0906105bb565b938c63ca4bc714936132e191612569565b51604051911991988995869560e01b86526132ff94600487016131a5565b03815a93602094fa92831561141e578a936133309361332b92600092613336575b5061322d908b612569565b613198565b9061323b565b61322d9192506133539060203d81116117c4576117b48183610baa565b9190613320565b50613240565b60405163288b2b3360e21b8152600490fd5b929391946117056117056128676134358689819761343c977f00000000000000000000000000000000000000000000000000000000000000009061340a7f0000000000000000000000000000000000000000000000000000000000000000926000936133ea6128676133e38761073b565b8a8a6127ec565b9061340461286760019a6133fd8c61073b565b908b6127ec565b926139d1565b9b8c92613418610115610ea1565b8503613534575b5061285a9450925061342f915050565b9161073b565b85896127ec565b916370a082319161344c60405190565b956134578460e01b90565b87526020878061346a896004830161013c565b0381885afa96871561141e576000976134fa575b509261349660209593876117289461349e9997613607565b6040516120b7565b03915afa90811561141e576134c39261066592611c41926000916134dc575b50612806565b106134ca57565b604051638d351ec960e01b8152600490fd5b6134f4915060203d81116117c4576117b48183610baa565b386134bd565b86949197506020959361349e9761172894613524613496948a3d81116117c4576117b48183610baa565b9a9497509450975093955061347e565b61354d956135489261314f6128679361073b565b61295f565b893889818a8161341f565b6001600160701b038116610185565b9050519061014c82613558565b63ffffffff8116610185565b9050519061014c82613574565b90916060828403126100fb576101156135a68484613567565b936135b48160208601613567565b93604001613580565b610115610115610115926001600160701b031690565b90926135fa906135f061011596946129fc60808601976000870152565b604083019061012f565b60608184039101526107de565b91929080613615600261073b565b821061390b57919061365f9360009261363a6128676136338661073b565b87856127ec565b9461366a60019788976136596128676136528b61073b565b86896127ec565b906139b6565b5094612a258861073b565b9761367c6136778861073b565b8a0390565b986000975b613692575b50505050505050505050565b80881015613906576136a86128678985886127ec565b936136c06128676136526136bb8d61073b565b8c0190565b966136cd611705836105bb565b95630902f1ac6136df61228760405190565b81526060816004818b5afa92831561141e576137469360009283916138c8575b506104f161370f613715926135bd565b936135bd565b61371e84610109565b149485156138b857613735611705602093956105bb565b6117286370a08231611d2360405190565b03915afa801561141e57816137659161376a9560009161389c57500390565b613aec565b906000901561388d575061377d8861073b565b90965b60008a8d111561387b57506137f3907f0000000000000000000000000000000000000000000000000000000000000000907f00000000000000000000000000000000000000000000000000000000000000006137ed6128676137e68f610812600261073b565b8a8d6127ec565b92613ad3565b9190915b9563022c0d9f9061380a611fcb8c61073b565b99813b156100fb578b8593819561382060405190565b9d8e968795869460e01b855261383993600486016135d3565b03925af190811561141e578a976138579261385f575b509860010190565b979395613681565b613875908a3d8c116114175761140f8183610baa565b3861384f565b61388591506104b8565b9083916137f7565b6138969061073b565b96613780565b6138b4915060203d81116117c4576117b48183610baa565b0390565b61373561170560209394956105bb565b61370f935061371591506138f56104f19160603d81116138ff575b6138ed8183610baa565b81019061358d565b50945091506136ff565b503d6138e3565b613686565b604051632cd5b9f760e21b8152600490fd5b92909461397385836139799795987f00000000000000000000000000000000000000000000000000000000000000007f000000000000000000000000000000000000000000000000000000000000000090613b64565b95909690565b86116139a45761014c958561399f92613548612867613998600061073b565b88886127ec565b613607565b60405163d2bf9a5d60e01b8152600490fd5b6139bf82610109565b6139c882610109565b10156102645791565b9091610115936139e9916139e3600090565b506139b6565b929091613a5a565b6139fd61013891610109565b60601b90565b601481613a15610812938396956139f1565b0180926139f1565b60209392613a46601461081294613a46613a3f8996604160f81b815260010190565b80926139f1565b01918252565b6101159061073b565b61073b565b90613ab8613ac992611787613a8a61011597613ace97613a78600090565b50604051938492602084019283613a03565b613a9c613a95825190565b9160200190565b2090611787613aaa60405190565b948593602085019384613a1d565b613ac3613a95825190565b20613a4c565b6104ab565b6105b2565b92613ae490611c21936139e3600090565b918194613a5a565b6000613af78161073b565b8314908115613b52575b50613b405761011592613b3b613b2f613b2861207d94613b226126f761073b565b90611ff3565b9283611ff3565b93613b2261271061073b565b611c3a565b604051633dce448b60e11b8152600490fd5b613b5c915061073b565b831438613b01565b90949260009560009580613b78600261073b565b8110613c195793929190613b959598600196879661285a8861073b565b965b613ba45750505050505050565b9091929394959897613bb6600061073b565b8a1115613c1257508590613c07613c01613bfa8c613bf2612867613bea6128678c8b61314f613be48d61073b565b88612806565b92898c6127ec565b90888b613c2b565b919c613ce0565b9a613198565b969594939291613b97565b9798612a3e565b6040516320db826760e01b8152600490fd5b9282613c4592613c6e949695613c3f600090565b50613ad3565b9190936060613c56611705876105bb565b630902f1ac90613c6560405190565b94859260e01b90565b825260049082905afa801561141e576000928391613cae575b506104f1613ca0613c9a613ca6936135bd565b946135bd565b94610109565b036102645791565b613c9a9350613ca69150613ca0613cd56104f19260603d81116138ff576138ed8183610baa565b509550925050613c87565b916000613cec8161073b565b8314908115613d41575b50613b405761207d613d2684613d20613d1561011597613d3197611ff3565b613b2261271061073b565b93612806565b613b226126f761073b565b613d3b600161073b565b90611c3a565b613d4b915061073b565b811438613cf6565b91906040838203126100fb578235906001600160401b0382116100fb576101ba81610115938601611058565b6101159081565b6101159054613d7f565b600160ff1b8114611c505760000390565b9290916000613daf8161073b565b85131580613f02575b613ef057613de382613dd9613dd286613df8960183613d53565b90506105bb565b946112748461073b565b90613dee8282613f86565b919590828761445a565b963397613e076104f18a610109565b03613ede57613e158561073b565b891315613ec15750613e39613e2982610109565b613e3287610109565b109861073b565b975b15613e5057505050509061014c93929161295f565b909192959350613e608383613f72565b15613e8d575091613e88613e7b6121d59793613e8395613fde565b949093613f14565b613d90565b6142e7565b959450505090613ea06101156001613d86565b8311613eaf5761014c9361295f565b60405163133f497b60e11b8152600490fd5b9750613ed8613ecf86610109565b613e3283610109565b97613e3b565b60405163882b7de160e01b8152600490fd5b604051637231f8b360e01b8152600490fd5b50613f0c8161073b565b841315613db8565b61011590613a55613f28600160ff1b61073b565b821061273b565b610115601461073b565b610115613f44613f2f565b613d3b610ebf565b610115613f57613f39565b613d3b613f2f565b610115613f6a613f4c565b613d3b613f39565b50613f81610665610115613f5f565b101590565b613f909190613f97565b9192909190565b90613fa6610665610115613f4c565b10611c8a57803591601762ffffff8460601c9460481c1692013560601c90565b909392938483116100fb5784116100fb578101920390565b61026491829181613fed613f39565b91613fc6565b9091929394614003610115611ca6565b83146140bd575b90946000915b60019061405461406292613a559261403161402b878c613f72565b98613f14565b88156140b657614040306105bb565b905b61404c888d61410c565b9290916142e7565b909190156140af5750613d90565b8093600014614086575061407f90614079306105bb565b95613fde565b9094614010565b9550614096945061066592505050565b1061409d57565b60405163764d8d5d60e11b8152600490fd5b9050613d90565b8b90614042565b91506140d4602061209b6117056117058989614123565b03915afa90811561141e576000916140ee575b509161400a565b614106915060203d81116117c4576117b48183610baa565b386140e7565b61026491829161411a613f4c565b91600091613fc6565b61011591614135610665610115613f2f565b10611c8a573560601c90565b9060001990610594565b9061415b6101156105db9261073b565b8254614141565b90946141a4946106659461417a61418f95600161414b565b614186613e8389613f14565b936000946142e7565b909190156141c85750613a55611c4191613d90565b036141b65761014c600019600161414b565b60405163260d2f3160e01b8152600490fd5b611c419150613a5590613d90565b61011573fffd8963efd1fc6a506488495d951d5263988d266104ab565b61420e906001600160a01b03165b916001600160a01b031690565b9003906001600160a01b038211611c5057565b6101156401000276a36104ab565b614241906001600160a01b0316614201565b01906001600160a01b038211611c5057565b93929061427260209161014c94604088019188830360008a0152610e4e565b94019061012f565b91906040838203126100fb57610115906142948185610bd0565b93602001610bd0565b91936142ca61011596946131d36142da94976142c160a0880199600089019061012f565b15156020870152565b6001600160a01b03166060830152565b60808184039101526107de565b909160006040946143a3611705989761439894614302600090565b506143346117056143138684613f86565b9e918f819f8b14614410576104f161432a91610109565b109e8f5b9e61445a565b9661438863128acb08958d88146143ef57614360614350614221565b61435a60016104ab565b9061422f565b935b61437c61436e60405190565b968793602085019384614253565b90810382520384610baa565b6040519b8c998a98899760e01b90565b87526004870161429d565b03925af191821561141e576000809190936143bd57509192565b90506143e191925060403d81116143e8575b6143d98183610baa565b81019061427a565b9092909190565b503d6143cf565b61440a6143fa6141d6565b61440460016104ab565b906141f3565b93614362565b906104f161441d91610109565b109e8f61432e565b60409061444f61014c94969593966144456060840198600085019061012f565b602083019061012f565b019062ffffff169052565b613ac990613ab8610115946144c9613ace95614474600090565b5061447e81610109565b61448786610109565b11614503575b7f0000000000000000000000000000000000000000000000000000000000000000946117876144bb60405190565b948593602085019384614425565b6144d4613a95825190565b207f000000000000000000000000000000000000000000000000000000000000000092611787613aaa60405190565b9361448d565b929391946117056117056128676134358689819761457a977f00000000000000000000000000000000000000000000000000000000000000009061340a7f0000000000000000000000000000000000000000000000000000000000000000926000936133ea6128676133e38761073b565b916370a082319161458a60405190565b956145958460e01b90565b8752602087806145a8896004830161013c565b0381885afa96871561141e57600097614611575b50926134966020959387611728946145d4999761464b565b03915afa90811561141e576145f89261066592611c41926000916134dc5750612806565b106145ff57565b604051631260490360e11b8152600490fd5b8694919750602095936145d4976117289461463b613496948a3d81116117c4576117b48183610baa565b9a949750945097509395506145bc565b91929080614659600261073b565b821061485457919061365f936000926146776128676136338661073b565b9461468f60019788976136596128676136528b61073b565b9761469c6136778861073b565b986000975b6146b15750505050505050505050565b80881015613906576146c76128678985886127ec565b936146da6128676136526136bb8d61073b565b966146e7611705836105bb565b95630902f1ac6146f961228760405190565b81526060816004818b5afa92831561141e576147289360009283916138c857506104f161370f613715926135bd565b03915afa801561141e57816147479161474c9560009161389c57500390565b614d3a565b9060009015614845575061475f8861073b565b90965b60008a8d111561483357506147c8907f0000000000000000000000000000000000000000000000000000000000000000907f00000000000000000000000000000000000000000000000000000000000000006137ed6128676137e68f610812600261073b565b9190915b9563022c0d9f906147df611fcb8c61073b565b99813b156100fb578b859381956147f560405190565b9d8e968795869460e01b855261480e93600486016135d3565b03925af190811561141e578a9761482b9261385f57509860010190565b9793956146a1565b61483d91506104b8565b9083916147cc565b61484e9061073b565b96614762565b60405163d2a0b0bb60e01b8152600490fd5b90929192614876610cb382610c11565b93818552602080860192028301928184116100fb57915b83831061489a5750505050565b602080916148a8848661018c565b81520192019161488d565b610115913691614866565b92909461397361491d9593967f0000000000000000000000000000000000000000000000000000000000000000907f000000000000000000000000000000000000000000000000000000000000000061491787876148b3565b92614d8e565b86116149415761014c958561493c92613548612867613998600061073b565b61464b565b60405163d3e46e4560e01b8152600490fd5b92939194611705611705612867613435868981976149c4977f00000000000000000000000000000000000000000000000000000000000000009061340a7f0000000000000000000000000000000000000000000000000000000000000000926000936133ea6128676133e38761073b565b916370a08231916149d460405190565b956149df8460e01b90565b8752602087806149f2896004830161013c565b0381885afa96871561141e57600097614a5b575b5092613496602095938761172894614a1e9997614a95565b03915afa90811561141e57614a429261066592611c41926000916134dc5750612806565b10614a4957565b604051630605b30160e11b8152600490fd5b869491975060209593614a1e9761172894614a85613496948a3d81116117c4576117b48183610baa565b9a94975094509750939550614a06565b91929080614aa3600261073b565b8210614c9957919061365f93600092614ac16128676136338661073b565b94614ad960019788976136596128676136528b61073b565b97614ae66136778861073b565b986000975b614afb5750505050505050505050565b8088101561390657614b116128678985886127ec565b93614b246128676136526136bb8d61073b565b96614b31611705836105bb565b95630902f1ac614b4361228760405190565b81526060816004818b5afa92831561141e57614b729360009283916138c857506104f161370f613715926135bd565b03915afa801561141e578161474791614b919560009161389c57500390565b9060009015614c8a5750614ba48861073b565b90965b60008a8d1115614c785750614c0d907f0000000000000000000000000000000000000000000000000000000000000000907f00000000000000000000000000000000000000000000000000000000000000006137ed6128676137e68f610812600261073b565b9190915b9563022c0d9f90614c24611fcb8c61073b565b99813b156100fb578b85938195614c3a60405190565b9d8e968795869460e01b8552614c5393600486016135d3565b03925af190811561141e578a97614c709261385f57509860010190565b979395614aeb565b614c8291506104b8565b908391614c11565b614c939061073b565b96614ba7565b6040516332f5b55960e21b8152600490fd5b929094613973614d049593967f0000000000000000000000000000000000000000000000000000000000000000907f000000000000000000000000000000000000000000000000000000000000000061491787876148b3565b8611614d285761014c9585614d2392613548612867613998600061073b565b614a95565b604051635de0867b60e01b8152600490fd5b6000614d458161073b565b8314908115614d7c575b50613b405761011592613b3b614d70613b2861207d94613b226103e561073b565b93613b226103e861073b565b614d86915061073b565b831438614d4f565b9391909293614d9b600090565b94600094614da7825190565b614db4610665600261073b565b10613c1957959190614dd89396614dc9825190565b93600195869561285a8761073b565b955b614de7575b505050505050565b90919293949796614df8600061073b565b891115614e5657508490614e4c614e46614e3f8b614e37612f53614e30612f53614e2a614e248b61073b565b86612806565b8c612569565b928a612569565b90878a613c2b565b919b614e5d565b99613198565b9594939291614dda565b9697614ddf565b916000614e698161073b565b8314908115614ea8575b50613b405761207d614e9d84613d20614e9261011597613d3197611ff3565b613b226103e861073b565b613b226103e561073b565b614eb2915061073b565b811438614e73565b90916060828403126100fb5781356001600160401b0381116100fb57614ee584610115928501611058565b93614ef3816020860161018c565b936040016101e7565b9291600092614f0a8461073b565b85131580614fcb575b614fb9578181611274614f2e614f3c94614f36960184614eba565b9691506105bb565b9661073b565b9290917fbe1ad9dc63739af8cded43d6743d0172fd068fb59defc029098100aa9f5fe7a08103614f70575061014c94614fdd565b614f997f3e72325cf02ac8f7d6e8dbcc6e90e6acbfeaf14c2fecf0dc76897f0d0badabd7610665565b03614fa75761014c946150e0565b60405163bf454b9160e01b8152600490fd5b6040516311803bbb60e21b8152600490fd5b50614fd58461073b565b831315614f13565b92939091614feb8582613f86565b614ffa83969394928288615414565b9533966150096104f189610109565b036150ce5760009361501a8561073b565b8913156150b15750615039906150326104f184610109565b109761073b565b965b1561504d5750505061014c945061295f565b9091959394925061505e8783613f72565b1561507e575090615079613e7b6121d597613e839594613fde565b61534d565b95505091909261011561509091613d86565b831161509f5761014c9361295f565b604051634c32e9fd60e11b8152600490fd5b97506150bf6150c891610109565b61503283610109565b9661503b565b604051638417775360e01b8152600490fd5b929390916150ee8582613f86565b6150fd839693949282886156ba565b95339661510c6104f189610109565b036151c15760009361511d8561073b565b8913156151ad5750615135906150326104f184610109565b965b156151495750505061014c945061295f565b9091959394925061515a8783613f72565b1561517a575090615175613e7b6121d597613e839594613fde565b615600565b95505091909261011561518c91613d86565b831161519b5761014c9361295f565b6040516301e7f94360e61b8152600490fd5b97506150bf6151bb91610109565b96615137565b60405163458be84760e11b8152600490fd5b90919293946151e3610115611ca6565b831461527c575b90946000915b60019061405461522e92613a559261520b61402b878c613f72565b88156152755761521a306105bb565b905b615226888d61410c565b92909161534d565b809360001461524c575061524590614079306105bb565b90946151f0565b955061525c945061066592505050565b1061526357565b604051630b16863160e41b8152600490fd5b8b9061521c565b9150615293602061209b6117056117058989614123565b03915afa90811561141e576000916152ad575b50916151ea565b6152c5915060203d81116117c4576117b48183610baa565b386152a6565b94926152fb9361418f92956152e461066595600061414b565b6152f0613e8388613f14565b92600098899461534d565b0361530e5761014c906000195b9061414b565b604051631e5418b560e11b8152600490fd5b611da861534260409361014c9698979560608501918583036000870152610e4e565b96602083019061012f565b909160006040946143a3611705989761439894615368600090565b5061539a6117056153798684613f86565b9e918f819f8b146153ff576104f161539091610109565b109e8f5b9e615414565b9661438863128acb08958d88146153ee576153b6614350614221565b935b61437c7fbe1ad9dc63739af8cded43d6743d0172fd068fb59defc029098100aa9f5fe7a05b604051978894602086019485615320565b6153f96143fa6141d6565b936153b8565b906104f161540c91610109565b109e8f615394565b613ac990613ab861011594615475613ace9561542e600090565b5061543881610109565b61544186610109565b116154af575b7f0000000000000000000000000000000000000000000000000000000000000000946117876144bb60405190565b615480613a95825190565b207f000000000000000000000000000000000000000000000000000000000000000092611787613aaa60405190565b93615447565b90919293946154c5610115611ca6565b831461555e575b90946000915b60019061405461551092613a55926154ed61402b878c613f72565b8815615557576154fc306105bb565b905b615508888d61410c565b929091615600565b809360001461552e575061552790614079306105bb565b90946154d2565b955061553e945061066592505050565b1061554557565b604051631b39018360e11b8152600490fd5b8b906154fe565b9150615575602061209b6117056117058989614123565b03915afa90811561141e5760009161558f575b50916154cc565b6155a7915060203d81116117c4576117b48183610baa565b38615588565b94926155dd9361418f92956155c661066595600061414b565b6155d2613e8388613f14565b926000988994615600565b036155ee5761014c90600019615308565b6040516383648b2760e01b8152600490fd5b909160006040946143a361170598976143989461561b600090565b5061564d61170561562c8684613f86565b9e918f819f8b146156a5576104f161564391610109565b109e8f5b9e6156ba565b9661438863128acb08958d881461569457615669614350614221565b935b61437c7f3e72325cf02ac8f7d6e8dbcc6e90e6acbfeaf14c2fecf0dc76897f0d0badabd76153dd565b61569f6143fa6141d6565b9361566b565b906104f16156b291610109565b109e8f615647565b613ac990613ab86101159461571b613ace956156d4600090565b506156de81610109565b6156e786610109565b11615755575b7f0000000000000000000000000000000000000000000000000000000000000000946117876144bb60405190565b615726613a95825190565b207f000000000000000000000000000000000000000000000000000000000000000092611787613aaa60405190565b936156ed56fea26474726f6e582212209f343dcd7da6974373edb921192f7f30e3fcb2e03dedf4db46aab64c2e0c0f3964736f6c63430008140033",
  "linkReferences": {},
  "deployedLinkReferences": {}
}