{
  "_format": "hh-sol-artifact-1",
  "contractName": "Vault",
  "sourceName": "src/mock/Vault.sol",
  "abi": [
    {
      "inputs": [
        {
          "internalType": "address",
          "name": "token",
          "type": "address"
        },
        {
          "internalType": "address",
          "name": "recipient",
          "type": "address"
        },
        {
          "internalType": "uint256",
          "name": "value",
          "type": "uint256"
        }
      ],
      "name": "sweep",
      "outputs": [],
      "stateMutability": "nonpayable",
      "type": "function"
    }
  ],
  "bytecode": "0x60806040523461001a57604051610349610020823961034990f35b600080fdfe6080604052600436101561001257600080fd5b60003560e01c6362c0676703610039576100a1565b6001600160a81b0381165b0361003957565b600080fd5b90565b61003e91503561005081610027565b6001600160a01b031690565b80610032565b9050359061006f8261005c565b565b90916060828403126100395761003e61008a8484610041565b936100988160208601610041565b93604001610062565b34610039576100ba6100b4366004610071565b916100bf565b604051005b9061006f929161022d565b6100dd6100d761003e9290565b60e01b90565b6001600160e01b03191690565b6001600160a01b03909116815260408101929161006f9160200152565b634e487b7160e01b600052604160045260246000fd5b90601f01601f1916810190811067ffffffffffffffff82111761013f57604052565b610107565b9061006f61015160405190565b928361011d565b67ffffffffffffffff811161013f57602090601f01601f19160190565b9061018761018283610158565b610144565b918252565b3d156101a65761019b3d610175565b903d6000602084013e565b606090565b61003e61003e61003e9290565b801515610032565b9050519061006f826101b8565b906020828203126100395761003e916101c0565b156101e857565b60405162461bcd60e51b815260206004820152601f60248201527f5472616e7366657248656c7065723a205452414e534645525f4641494c4544006044820152606490fd5b916004610271600093610262859461024863a9059cbb6100ca565b9261025260405190565b95869460208601908152016100ea565b6020820181038252038261011d565b80519060200182855af161028361018c565b916001600160a01b031673a614f803b6fd780986a42c78ec9c7f77e6ded13c148061030c575b6103085761006f91816102bd575b506101e1565b90506102c7815190565b6102d86102d460006101ab565b9190565b149081156102e8575b50386102b7565b610302915060206102f7825190565b8183010191016101cd565b386102e1565b5050565b50806102a956fea26474726f6e58221220e1e4bd6c7fe7ea441d0160070f49336e1724a1ebdf94e86d2ff8e4b0d60ef1a964736f6c63430008140033",
  "linkReferences": {},
  "deployedLinkReferences": {}
}